:10000000D1EF01F0F76A140FF66E000EF722090027
:10001000F5501200280C0106444F20414E20544F49
:1000200054204E474849455000000C535620544830
:100030005543204849454E000C4E475559454E20E2
:100040004241205155414E0A00000C4E475559453A
:100050004E2051554F43205655000C44494E4820E0
:10006000445543204B4841007469656E00000C0004
:100070006C7569000C007472616900000C00706896
:10008000616900000C000C0064756E6700000C00D4
:10009000EA6A080EE96EEF500EE0030E016E006A88
:1000A000002EFED7012EFBD7E30E006E002EFED7EA
:1000B0000000EF2EF2D712000FB002D08B9801D0C3
:1000C0008B8894980FB202D08B9A01D08B8A949A25
:1000D0000FB402D08B9C01D08B8C949C0FB602D0B5
:1000E0008B9E01D08B8E949E00008B80949000D0CC
:1000F00000D000D08B9094901200106A9488000E6B
:1001000082B8010E1012948A000E82BA010E006E9F
:10011000D890003600501012948C000E82BC010E54
:10012000006E00360036FC0E001600501012948E41
:10013000000E82BE010E006E003600360036F80E4C
:1001400000160050101210C001F012009488948A1A
:10015000948C948E8B82949200008B8094900000FB
:10016000CCDF01C00FF08B90949000008B809490B6
:1001700000D00000C2DF01C00EF08B9094909498E4
:10018000949A949C949E0F38006EF00E00160050C6
:100190000E10016ED2EF00F09490949694928B968C
:1001A0009496D4D701C00EF001BEFBD70C5202E1E9
:1001B0008B9601D08B86949600008B9294920000CF
:1001C0008B9094900D380E6E0F0E0E160EC00FF021
:1001D00073DF0D500F0B0E6E0F6E6EDF12009498D2
:1001E000949A949C949E9490949694928B969496C0
:1001F0008B9294928B9094900F0E086E49DF010EB3
:10020000056E0550030808E3030E0F6E55DF050E5B
:10021000086E3EDF052AF5D7020E0F6E4DDF050E84
:10022000086E36DF056A0550030809E3036A0550C6
:10023000E9DE066E0C6A0D6EAFDF052AF4D7DCEF3F
:1002400001F0092C01D003D0400E0A6E01D00A6AD9
:10025000010E085C0A260A5080090B6E0C6A0D6EAE
:100260009BDF12000750070A07E00B0A0AE0060AA4
:1002700010E0020A14E018D0010E086E096EE1DFEA
:1002800018D00C6A010E0D6E87DF020E086E00DFBB
:1002900010D0010E086E020E096ED3DF0AD00C6A70
:1002A000100E0D6E79DF05D0010E0C6E07C00DF03B
:1002B00073DF65EF01F00900F5520CE0F6CF05F0B1
:1002C000F7CF06F0F5CF07F0CDD705C0F6FF06C093
:1002D000F7FFF1D71200928280A211D0956A050E25
:1002E0008C6E680EF66E000EF76EE5DF140E086E6B
:1002F000CFDE6E0EF66E000EF76EDDDF50D092840C
:1003000080A411D0956A0A0E8C6E700EF66E000EE7
:10031000F76ED1DF140E086EBBDE740EF66E000EA3
:10032000F76EC9DF3CD0928680A611D0956A040E84
:100330008C6E760EF66E000EF76EBDDF140E086E34
:10034000A7DE7C0EF66E000EF76EB5DF28D0928821
:1003500080A811D0956A010E8C6E7E0EF66E000E8E
:10036000F76EA9DF140E086E93DE840EF66E000E93
:10037000F76EA1DF14D0860EF66E000EF76E9BDFCF
:10038000956A8C6A880EF66E000EF76E94DF140E76
:10039000086E7EDE8E0EF66E000EF76E8CDF05EFB9
:1003A00002F0F86AD09EEA6AE96AC150C00B0F09F0
:1003B000C16E070EB46E13D7180EF66E000EF76EF0
:1003C0007ADF640E086E64DE2A0EF66E000EF76E9B
:1003D00072DF640E086E5CDE380EF66E000EF76E8D
:1003E0006ADF640E086E54DE4A0EF66E000EF76E7B
:1003F00062DF640E086E4CDE5A0EF66E000EF76E6B
:0E0400005ADF640E086E44DE66D7FED7030096
:020000040030CA
:0E00000000C2180E008781000FC00FE00F40F5
:00000001FF
;PIC18F4520
;CRC=A618  CREATED="12-Apr-15 10:03"
