:100B59004D5541204C494E48204B49454E2E564E45
:100B690000544553542053524630350056616C5F4A
:100B790054696D65723A202575200052616E67656A
:0F0B89003A252E326620436D00202020202000C8
:100C8C00E4FDFCC3ED9FEC9E50070DBD00010C80F4
:010C9C00F265
:010C9D002234
:070BCB00120C737F057E0090
:100BD200E4FDFCC3ED9FEC9E5015E4FBFA0BBB0059
:0F0BE200010AEB647D4A70F50DBD00010C80E443
:010BF10022E1
:100C3900D2B17F0C7E00120BD2D2B27F01120C8C82
:0E0C4900C2B130B2FDD2AFD2A8D288D28C2276
:030C9E00120C57DE
:0E0CA100D2A27F017E00120C8CC2A2020C8C2B
:100C5700EF1392A4EFC3131392A5EF1313543F138B
:0C0C670092A6EF131313541F1392A72240
:100C7300AB077F147E00120C8CEBC4540FFF120CD5
:090C83009EAF03120C57020CA1F4
:100B1400E4FF120C577F0A7E00120BD2C2A0C2A1BE
:100B2400C2A27F03120C9E120CA1120CA17F02120E
:100B34000C57120CA17F2C120BCB7F80120C737FED
:100B44000C120C737F06120BCB7F01120C737F0AFD
:050B54007E00020BD23F
:100C1900ED7006EF2480FA8004EF24C0FA7FE87EA5
:100C290003120C8CAF02120C737F327E00020C8C03
:0C0CAF007F01120C737F0A7E00020C8C87
:080CC700D2A0120C73C2A0229E
:0C0B9800E4FDFF120C197B007A00794785
:100BA4008B5F8A608961AB5FAA60A9611204CEFF82
:100BB40060143395E0FE120CC774012561F561E4FD
:070BC4003560F56080E022BE
:03000300020A826C
:100A8200C0E0C0F0C083C082C0D075D000C000C03A
:100A920001C002C003C004C005C006C007AF8C7508
:100AA20045008F46E546754600F545AF8AEF42465A
:100AB200E4AC45AD461201B1E4FBFA79407841124B
:100AC20000068F398E388D378C36755EC0755D5B4A
:100AD200755C20755B44AB5EAA5DA95CA85B1201E4
:100AE2000F8F398E388D378C36C2A8C288C28C756A
:100AF2008C00758A00D209D007D006D005D004D068
:100B020003D002D001D000D0D0D082D083D0F0D098
:020B1200E032CF
:1009D900120B147589017562FF75630B7564597B78
:1009E900007A0079471205C6120B987FA07E0F1274
:1009F9000BD27D017F03120C197BFF7A0B796A12E6
:100A09000BA47FD07E07120BD2120CAF20090A1259
:100A19000C397F647E00120BD23009F07562FF75C4
:100A2900630B7564758545658546667B007A007933
:100A3900471205C67562FF75630B7564848539684D
:100A49008538678537668536657B007A0079221295
:100A590005C6120B987BFF7A0B7992120BA47D01C4
:100A6900E4FF120C197B007A007922120BA47FC8CB
:090A79007E00120BD2C209809329
:10000600EC4D6011E8497017ED33EC3304600DE4F4
:10001600FCFFFEFD22E933E8330470F802021F12EA
:1000260001EA58046009E4CC2481500628500902EC
:100036000229284003020226C0E0EB4A7044B98038
:1000460006D0E0FB020215EF4E701CBD8008EBFFE8
:10005600EAFEE9FD80EBE98DF0A4FEE5F00200EF93
:10006600E9CDF9EAFEEBFFEF89F0A4FCE5F0CE89D5
:10007600F0A42EFFE435F0CD89F0A42DFEE435F092
:100086008067EF4E7005BD80D780C3EF8BF0A4ACC0
:10009600F0EE8BF0A42CFCE435F0F8EF8AF0A42CFB
:1000A600E5F038FCE433CB8DF0A42CFCE5F03BF80E
:1000B600EE8AF0A42CFCE5F038F8E433CF89F0A4FE
:1000C6002CFCE5F038CF3400CE89F0A42FFFE5F004
:1000D6003EFEE433C98DF0A42EFEE5F039CD8AF05C
:1000E600A42FFFE5F03EFEE43DFD33D0E0FB5007D4
:1000F6000BBB000F020229EC2CFCEF33FFEE33FEA4
:06010600ED33FD020201D1
:10010C00020229EC5D046005E85904700302021F29
:10011C001201EA580460F6EC4860F2EC7004FDFE43
:10012C00FF22C860DB2481C85009C39860025006C6
:10013C000202269850CAF582E9294B4A7005AB8217
:10014C0002021575F0007C1A7880C3EF9BEE9AEDD5
:10015C0099400DC3EF9BFFEE9AFEED99FDE842F03E
:10016C00DC23ACF0D0E0FFD0E0FED0E0FDAB822091
:10017C00E7101BEB60BAEC2CFCEF33FFEE33FEED1B
:10018C0033FD020201E803F830E705C0F075F0001A
:10019C00EF2FFFEE33FEED33FD40B830E7C280AAFF
:1001AC0075F020800E75F010800575F0087D007ECE
:1001BC00007F003392D530D503120526EC33401066
:1001CC00EF33FFEE33FEED33FDEC33FCD5F0ED22D7
:0E01DC00E5F0247EA2D513CC92E7CDCEFF2213
:10056A00E5762462F8E6057622785F30070278623B
:10057A00E475F0011205340204CE2000EB7F2ED27E
:10058A00008018EF540F2490D43440D4FF30040B69
:10059A00EF24BFB41A0050032461FFE57760021507
:1005AA0077057AE57A7002057930070D785FE47588
:1005BA00F001120534EF020514020BF27403D2079C
:1005CA008003E4C207F5768B5F8A608961E4F57778
:1005DA00F579F57AE57760077F201205A580F5752C
:1005EA0078FFC201C200C202C203C205C206C20823
:1005FA00120573FF700D3007057F001205B6AF7A3A
:10060A00AE7922B4255FC2D5C204120573FF24D085
:10061A00B40A00501A75F00A787730D50508B6FF83
:10062A000106C6A426F620D5047002D20380D92476
:10063A00CFB41A00EF5004C2E5D2040208A3D201D3
:10064A0080C6D20080C0D20280BCD2D580BAD20580
:10065A0080B47F201205A52002077401B5770040F7
:10066A00F112056AFF1205A50205DED208D206803C
:10067A009512056AFB12056AFA12056AF94A4B7065
:10068A0006799A7A097BFF20022EE577602A7E0096
:10069A008E827583001204E760060EEE657870F0AC
:1006AA00C2D5EBC0E0EAC0E0E9C0E0EE120903D02F
:1006BA00E0F9D0E0FAD0E0FB1204CEFF60AAEBC06A
:1006CA00E0EAC0E0E9C0E01205A5D0E02401F9D0D3
:1006DA00E03400FAD0E0FBE5780460DCD578D98014
:1006EA0087D20280A21208E660F7E5787001041248
:1006FA000234A978600DE578600914F57812098D3D
:10070A00EF60F3EA30E702F404C3995077EAF4257C
:10071A00780430E701E404F578800D1208E660C138
:10072A00EA05782578120234EA7875F630E701E4AA
:10073A00257804D5780420050114120903E4C0E0E1
:10074A0012098D7875E6601320E70714F612058DF5
:10075A00802204F6D0E014C0E07F0012058DE5780F
:10076A0060071205841578800B300503120584D0C2
:10077A00E00205DED0E00480C51208E660A0E57854
:10078A00041202347875EAF6E5782005026001045D
:05079A00240412090314
:10079F0074FF04C0E012098D12058DE57820050263
:1007AF006003120584D0E0B578E87F45120597788D
:1007BF0075E67F2B30E7047F2DF404C0E01205A50A
:1007CF00D0E075F00A84C0F012058ED0E012058ECD
:1007DF000205DE791080027908C206C2088008D2AD
:1007EF00D5790A8004790AC2D5E578047002F578C4
:1007FF00E4FAFDFEFF12056AFC7B082001131205C7
:10080F006AFD7B1030000A12056AFE12056AFF7B33
:10081F0020EC3382D592D55013C3E43000069FFFEE
:10082F00E49EFEE42001039DFDE49CFCE4CBF8C2B2
:10083F0001EC700CCFCECDCCE824F8F870F3801714
:10084F00C3EF33FFEE33FEED33FDEC33FCEB33FB45
:10085F00994002FB0FD8E9EB300105F8D0E0C4480E
:10086F00B201C0E00AEC4D4E4F78207B0070C2EA17
:10087F00B5780040BCC0E0120905D0F0D0E02001EF
:10088F0004C4C0E0C4B201C0F012058ED0F0D5F0A0
:10089F00EB0205DE120544067B5307E258064C4C6B
:1008AF0006484207E64F07EE4407EE490661430745
:1008BF00F45507254607834506EF4709BA500650FA
:1008CF002D06542E06772B06582306752009A32ACA
:1008DF000610480000066FE578B4FF03757806121E
:1008EF00056AFC12056AFD12056AFE12056AFF7899
:1008FF006E020263790AA2D5200314300509B910DC
:10090F00020404B9080104A2D520060250010420F4
:10091F0002689202B577005034C0E07F203003198F
:10092F007F30A20272067205500F12095CC202C21A
:10093F0006C205C2087F30800F300503E9C0E01200
:10094F0005A5300503D0E0F9D0E0B577CC30051719
:10095F007F30B9100C1205A57F583004077F7880BF
:10096F0003B908031205A53002057F2D0205A57FE7
:10097F00202008F87F2B2006F322920280CF7F00E1
:10098F00B407005005246EF8E6FF22286E756C6CD4
:10099F002900D20112056A3001F8C201787730D5EB
:1009AF000108F60206102D5043495812056A240318
:1009BF00B405004001E49009B593120596743A12FC
:0A09CF000596D2037577040207E2D3
:1001EA00E9D2E7C933E833F892D5EDD2E7CD33EC5B
:0701FA0033FC5002B2D522D4
:10020100EC30E7100FBF000C0EBE00080DBD00045E
:100211000BEB6014A2D5EB13FCED92E7FD2274FF0A
:10022100FCFDFEFF22E480F8A2D574FF13FC7D8063
:03023100E480EF77
:10023400F920E72824F950037907E4F42402FB1891
:10024400DBFDE624FB5014E9600DE4F618E604F641
:0F025400B40A08E4F6D9F57401F60A22C2D522DD
:10026300ED33EC3392D5FA602AB4FF33EDC2E77B6A
:10027300FF60067A027988E4227A02799120D50414
:100283007A02798C224E614E002B494E46002D494D
:100293004E4600E47A08F608DAFC7B00740722E88D
:1002A300C0E0ECC0E0EDC0E0EEC0E0EFC0E0EA7516
:1002B300F010A4CAABF075F04DA42BFBE435F0FCB1
:1002C300EA2410FAEB34C5FBEC34D9FCEDC2E7FFAA
:1002D30075F056A4F42411C5F0F434C58FF0A42AA4
:1002E300E5F03BE43CF620E71412048ED0E0FFD0A7
:1002F300E0FED0E0FDD0E0FC12010F8014F4041204
:10030300048ED0E0FFD0E0FED0E0FDD0E0FC120090
:1003130006D0E0F8E6FAEDD2E7CD33EC332482FBE6
:10032300E4C3CF33CFCE33CECD33CD33DBF37B0733
:1003330075F00A846004F6081B0AE5F0F6088FF0EE
:10034300740AA4FFACF08EF0740AA42CFEACF05037
:10035300010C8DF0740AA42CFDE435F0F608DBDE05
:03036300740722FA
:1003660002021FE86480F8E933E83360110460F0A4
:10037600ED33EC337009E8FCE9FDEAFEEBFF2204FD
:1003860060DED3EB9FEA9EE99DE8C2E78CF0C2F7F8
:1003960095F0400CE8CCF8E9CDF9EACEFAEBCFFBC4
:1003A6001201EA85D0F05804700320D5B3E8047032
:1003B600075002B2D502022992D5EC0460F7E4CCCC
:1003C600C0E0C398F8603B94186008400DD0E0FB8D
:1003D600020201E4FBFAC9FC8028E830E406E4C91D
:1003E600FBE4CAFCE830E305E4C9CACBFCE85407E1
:1003F6006010F8C3E913F9EA13FAEB13FBEC13FCEC
:10040600D8F130F52FC3E49CFCEF9BFFEE9AFEED8E
:1004160099FDD0E0FBEF4E4D4C701222DB03020239
:1004260026EC2CFCEF33FFEE33FEED33FDED30E72B
:10043600EB020201EF2BFFEE3AFEED39FDD0E0FBB9
:1004460050130BBB0003020229ED13FDEE13FEEF62
:0804560013FFEC13FC0202018C
:10045E003F8000004120000042C80000447A0000A6
:10046E00461C400047C35000497424004B18968028
:10047E004CBEBC205A0E1BCA6753C21C749DC5AE1F
:10048E00FB60065407601C23231204BCEB54386037
:10049E00091204A81204B7120006ECF8EDF9EEFAF0
:1004AE00EFCB22EB1204B780F1543803241C9004D6
:1004BE005EFE93FC0EEE93FD0EEE930ECE93FF2298
:03000000020CBB34
:0C0CBB00787FE4F6D8FD75817A0209D933
:1004CE00BB010689828A83E0225002E722BBFE022C
:0904DE00E32289828A83E493225F
:1004E700BB010CE58229F582E5833AF583E02250CA
:1004F70006E92582F8E622BBFE06E92582F8E22214
:0D050700E58229F582E5833AF583E493222D
:10051400BB010689828A83F0225002F722BBFE01C6
:02052400F322C0
:0E052600C3E49FFFE49EFEE49DFDE49CFC22E6
:10053400FAE6FB0808E6F925F0F618E6CA3AF622C8
:10054400D083D082F8E4937012740193700DA3A346
:1005540093F8740193F5828883E47374029368605A
:06056400EFA3A3A380DF5A
:100BF200EFB40A07740D120BFD740A309811A8990C
:100C0200B8130CC2983098FDA899C298B811F63062
:070C120099FDC299F599223A
:00000001FF
