:0400000062EF07F0B4
:08000800046ED8CF05F0E0CF33
:1000100006F00001E9CF0CF0EACF07F0E1CF08F0DD
:10002000E2CF09F0D9CF0AF0DACF0BF0F3CF12F01C
:10003000F4CF13F0FACF14F0F5CF15F0F6CF16F099
:10004000F7CF17F000C00EF001C00FF002C010F0A3
:1000500003C011F0F2A830EF00F0F2B2D7EF01F0D8
:10006000F0A636EF00F0F0B008EF02F00EC000F09E
:100070000FC001F010C002F011C003F00CC0E9FF86
:1000800007C0EAFF078E08C0E1FF09C0E2FF0AC00F
:10009000D9FF0BC0DAFF12C0F3FF13C0F4FF14C086
:1000A000FAFF15C0F5FF16C0F6FF17C0F7FF0450A2
:1000B00006C0E0FF05C0D8FF1000F76ACA0FF66E51
:1000C000000EF7220900F5501200280C0106800EE0
:1000D000D8B2441A496A4A6A40C048F04450481AA3
:1000E0003F50D8B4DCD0476E006E4350D8B4E0D057
:1000F000475ED8B481D03DE344C04DF04D8E45C03D
:100100004CF046C04BF04A6AD8904D324C324B32DC
:100110004A32472EF8D748AE03D04980DDD0499007
:1001200047904988EA6A420EE96EE9D0499848BE8C
:100130000AD047A013D04D324C324B324A32002AFB
:10014000D8B4C5D00BD04DBE0CD0D8904A364B3663
:100150004C364D360006D8B4BAD0F5D7498C6BD0A2
:10016000499C40C048F040AE02D04D8EA9D04D9E73
:10017000A7D043C047F043C000F03F50475E40C0A7
:100180004DF04D8E41C04CF042C04BF04A6AD890C1
:100190004D324C324B324A32472EF8D748AE03D05C
:1001A00049829AD049924790498AEA6A460EE96E96
:1001B000A6D0499A48BE0AD047A013D04D324C323F
:1001C0004B324A32002AD8B482D00BD04DBE0CD06C
:1001D000D8904A364B364C364D360006D8B477D0D8
:1001E000F5D7498E28D0499E44C048F044AE02D08D
:1001F0004D8E66D04D9E64D044C04DF04D8E45C0AE
:100200004CF046C04BF048AE04D04D9E498464D0BB
:1002100049944A6A4790EA6A420EE96E70D048BE35
:100220001CD040C048F047A006D04D324C324B3273
:100230004A32002A4CE04AAE0BD04B2A09E14C2A44
:1002400007E14D2A05E14D324C324B32002A3FE0A6
:1002500049BC86D749BEC7D71CD0800E4D1A4DAEBB
:1002600004D03AD044C048F00AD040C048F04D52C3
:1002700006E14C5204E14B5202E1006A21D04DBE2E
:1002800008D0D8904A364B364C364D36002EF7D72C
:100290001ED048AE02D04D8E13D04D9E11D043C01B
:1002A00000F044C04DF045C04CF046C04BF008D0C3
:1002B0003FC000F040C04DF041C04CF042C04BF098
:1002C0004DC001F04CC002F04BC003F034D0006AC6
:1002D000016A026A036A2FD04A6A4B1E4C1E4D1EE9
:1002E0004A1E4A2A05E14B2A03E14C2A01E14D2A24
:1002F00049B015D749B256D749B48AD7B3D7EF50CA
:100300004B2605E34C2A03E14D2AD8B44780ED5231
:10031000EF504C2603E34D2AD8B44780ED52EF50FE
:10032000EFBE01D0800A4D26D8B0478049B8FED62E
:1003300049BA3FD774D7120040C047F04450471A1B
:1003400047AE05D0D894D89040BED8802FD040C0BA
:1003500047F043C048F03F50485E06E047AE26D025
:10036000D850010AD86E22D044C048F04050485EB0
:1003700006E047AE1BD0D850010AD86E17D045C052
:1003800048F04150485E06E047AE10D0D850010A10
:10039000D86E0CD046C048F04250485E06E047AEEA
:1003A00005D0D850010AD86E01D0D8901200D8825A
:1003B0001CC042F01BC041F01AC040F019C03FF011
:1003C000CD0E466ECC0E456E4C0E446E7B0E436ECB
:1003D0007EDE03C01CF002C01BF001C01AF000C09A
:1003E00019F01CC042F01BC041F01AC040F019C007
:1003F0003FF0466A456A446A7E0E436E9DDF05E320
:100400001C6A1B6A1A6A7E0E196EF29236EF00F0B1
:10041000D8921CC042F01BC041F01AC040F019C075
:100420003FF0CD0E466ECC0E456E4C0E446E7B0EEC
:10043000436E4DDE03C01CF002C01BF001C01AF079
:1004400000C019F0426A416A406A7F0E3F6E1CC0CC
:1004500046F01BC045F01AC044F019C043F06CDFF1
:1004600005E31C6A1B6A1A6A7F0E196EF09036EF5C
:1004700000F00C444F20414E20544F54204E47482A
:10048000494550000C53562054485543204849458F
:100490004E000C4E475559454E2042412051554182
:1004A0004E000C4E475559454E2051554F4320564E
:1004B00055000C44494E4820445543204B484100C8
:1004C0000C006E6869657420646F3A25322E3166BF
:1004D000000050574D3A25322E3166000C000C00BA
:1004E00068757420627569000C000C20526F626F91
:1004F00074207469656E00000C20526F626F742066
:100500006C7569000C2052652074726169000C20C2
:1005100052652070686169000C20526F626F742010
:1005200064756E670000EA6A330EE96EEF500DE005
:10053000060E016E006A002EFED7012EFBD77B0E41
:10054000006E002EFED7EF2EF3D712003AB002D085
:100550008B9801D08B8894983AB202D08B9A01D0B4
:100560008B8A949A3AB402D08B9C01D08B8C949C49
:100570003AB602D08B9E01D08B8E949E00008B8069
:100580009490020E006E002EFED700D000008B90DB
:10059000949012003B6A9488000E82B8010E3B12C0
:1005A000948A000E82BA010E006ED8900036005078
:1005B0003B12948C000E82BC010E006E0036003699
:1005C000FC0E001600503B12948E000E82BE010EEF
:1005D000006E003600360036F80E001600503B1252
:1005E0003BC001F012009488948A948C948E8B8284
:1005F000949200008B8094900000CCDF01C03AF010
:100600008B90949000008B80949000D000D00000DC
:10061000C1DF01C039F08B9094909498949A949C87
:10062000949E3A38006EF00E001600503910016E9C
:1006300020EF03F09490949694928B969496D3D74F
:1006400001C039F001BEFBD7375202E18B9601D0D1
:100650008B86949600008B92949200008B909490DD
:100660003838396E0F0E391639C03AF06FDF38500E
:100670000F0B396E3A6E6ADF12009498949A949C2C
:10068000949E9490949694928B9694968B92949236
:100690008B9094900F0E336E46DF010E256E255021
:1006A000030808E3030E3A6E51DF050E336E3BDF9D
:1006B000252AF5D7020E3A6E49DF050E336E33DF79
:1006C000256A2550030809E3036A2550F6DC266EE7
:1006D000376A386EAFDF252AF4D770EF03F0CDD735
:1006E000C00EF212F288F086F288F18CF086F18A60
:1006F000000E0509CA6E4A0ECB6E94948B940C0EB4
:10070000BD6EB76AB66A070EB46E9250926E100E46
:10071000006E002EFED70000B450A19CA50ECD6E39
:10072000C050C00B0709C06EC09EC280C150C00B34
:100730000E09C16E000E016EC250C30B0110C26ED5
:1007400072EF07F0342C01D003D0400E356E01D08B
:10075000356A010E335C352635508009366E376AAE
:10076000386E68DF12003250070A07E00B0A0AE011
:10077000060A10E0020A14E018D0010E336E346E3F
:10078000E1DF18D0376A010E386E54DF020E336E87
:10079000CADE10D0010E336E020E346ED3DF0AD0E3
:1007A000376A100E386E46DF05D0010E376E32C044
:1007B00038F040DF12000900F5520CE0F6CF25F0CA
:1007C000F7CF26F0F5CF32F0CEDF25C0F6FF26C0FA
:1007D000F7FFF1D71200956A8C6A180EF66E050EB7
:1007E000F76EE9DF12008E0E006E26C001F025C004
:1007F00002F0036A015209E102C001F0026A080E28
:10080000005E015202E1006A08D0D89001BE04D017
:10081000023601360006F9D7019E9DEF04F03250F2
:10082000D8B471D0006E3650D8B46DD0002604E331
:10083000810E002668E204D07F0E005E64E363E070
:1008400033C03AF037503A1A338E378E355039026A
:10085000F4CF3CF034503802F4CF03F0F3CF3BF048
:100860003902F3503C26F4503B22000E032235504F
:100870003802F3503C26F4503B22000E026A032259
:10088000022233503902F3503B26F4500322000E6B
:10089000022233503802F3500326F4500222000E95
:1008A000016A012235503702F3503B26F4500322EF
:1008B000000E0222012234503702F3500326F45076
:1008C0000222000E012233503702F3500226F45068
:1008D0000122002A01BE05D03B360336023601361E
:1008E0000006000E3BAE0AD0032A0222012201506C
:1008F00005E1025003E1035001E1002A3ABE018EF6
:100900003AAE019E04D0006A016A026A036A1200CC
:10091000C282C2B2FED7C4CF03F0C3CF23F003C05C
:1009200024F0020E256EFA0E336EFDDD252EFBD768
:1009300024C026F023C025F056D703C035F002C0EE
:1009400034F001C033F000C032F0396A386A7A0EF0
:10095000376E7D0E366E63DF03C020F002C01FF0DD
:1009600001C01EF000C01DF0320E336EDCDDBEEFA4
:1009700007F00900F6CF26F0F7CF27F0F5CF32F0D9
:10098000F2DE26C0F6FF27C0F7FF252EF2D71200B1
:100990003250B608326E036A33C036F0338ED890C8
:1009A0003332343235320332023201320032322EE7
:1009B000F6D736AE0BD0001E011E021E031E002A03
:1009C000D8B4012AD8B4022AD8B4032A56EF05F0C5
:1009D000D8B203D0EA6A3A0EE96E006A016A026A86
:1009E000036A3A6A3B6A3C6A3D6A395038103710EC
:1009F00036102CE0200E3E6ED89032363336343628
:100A000035363A363B363C363D3639503D5C08E1AA
:100A100038503C5C05E137503B5C02E136503A5CB3
:100A20000FE336503A5E3750D8A0373C3B5E385023
:100A3000D8A0383C3C5E3950D8A0393C3D5ED880C7
:100A400000360136023603363E2ED6D73AC0EFFFC7
:100A50003BC0ECFF3CC0ECFF3DC0ECFF1200E95096
:100A60002A6E29502C6E19E028C035F027C034F0CA
:100A700026C033F025C032F0396A386A200E376E4E
:100A8000820E366ECCDE03C028F002C027F001C013
:100A900026F000C025F02C2EE7D728C035F027C05F
:100AA00034F026C033F025C032F072D703C028F0EE
:100AB00002C027F001C026F000C025F028AE0DD0FE
:100AC0002A062A8A251E261E271E281E252AD8B455
:100AD000262AD8B4272AD8B4282A3B0E316E9A0E7B
:100AE000306ECA0E2F6E2E6A0A0E2C6E2950D8B4A4
:100AF0002A2AD882EA6A250EE96E28C035F027C076
:100B000034F026C033F025C032F031C039F030C0A7
:100B100038F02FC037F02EC036F05ADF01500052A7
:100B20000FE129282C5C0CE02A500CE00F0B2C5C08
:100B300001E037E22ABE35D02ABC04D0200E2DD0E9
:100B4000200E2A162AAA0CD02A9A2950D8A42A069E
:100B500000502A6E2D0E326E06DE2A50006E2A6A72
:100B600029502C5C0AE100502A6E2E0E326EFBDDFD
:100B70002A50006E200E2A16000E300E2AAA0DD022
:100B80002A9A2950D8A42A0600502A6E2D0E326EB9
:100B9000EADD2A50006E2A6A300E002600C032F0CC
:100BA000E2DDD89231C035F030C034F02FC033F0E0
:100BB0002EC032F0396A386A376A0A0E366E08DF9C
:100BC00003C031F002C030F001C02FF000C02EF0A1
:100BD0002C2E8FD712008E0E006E2550005E26C080
:100BE00002F027C001F0028E005209E0D8900252B4
:100BF00002E1015204E002320132002EF7D726AEA4
:100C000005D0011E021E012AD8B4022A36EF06F0D2
:100C10001CC035F01BC034F01AC033F019C032F0DC
:100C2000396A386A376A810E366EF9DD03C028F0FA
:100C300002C027F001C026F000C025F003C035F047
:100C400002C034F001C033F000C032F0396A386AB3
:100C5000160E376E850E366EE2DD03C028F002C038
:100C600027F001C026F000C025F0B5D702C022F061
:100C700001C021F022C002F021C001F00232013295
:100C800002320132023201C0BEFF02320230300BAA
:100C9000006EBD50CF0B0010BD6E1200956A0A0E9B
:100CA0008C6EEA0EF66E040EF76E85DD1200928AE7
:100CB00080AA10D093988A98DE0EF66E040EF76E16
:100CC0007ADDE00EF66E040EF76E75DD640E336E9F
:100CD0002ADC07D093988A88E80EF66E040EF76E29
:100CE0006ADD1200956A050E8C6EF80EF66E040E23
:100CF000F76E61DD1200956A020E8C6E0E0EF66EB6
:100D0000050EF76E58DD1200956A080E8C6E040E03
:100D1000F66E050EF76E4FDD1200968284A216D095
:100D2000968484B413D074DFB9DF020E256EFA0EF8
:100D3000336E93EC02F0252EFAD7B9DF0A0E336E2C
:100D400093EC02F0968084A001D0E7D744DD040E36
:100D5000256EFA0E336E93EC02F0252EFAD7A7DF3C
:100D60000A0E336E93EC02F053DFBCDF060E256EE5
:100D7000FA0E336E93EC02F0252EFAD7BCDF0E0E7E
:100D8000256EFA0E336E93EC02F0252EFAD796827A
:100D900084A212D0968484B40FD03ADF7FDF020E93
:100DA000256EFA0E336E93EC02F0252EFAD77FDF14
:100DB000968084A001D0EBD72BDF79DF0CDD040E09
:100DC000256EFA0E336E93EC02F0252EFAD78ADFE9
:100DD000060E256EFA0E336E93EC02F0252EFAD72E
:100DE00093DF0E0E256EFA0E336E93EC02F0252E75
:100DF000FAD709EF08F0968284A203D0968484A4DF
:100E00000AD0E9DC939A8A8A1E0E336E93EC02F0C4
:100E1000939A8A9A02D0939A8A9A928480A411D043
:100E2000968284A20ED0968484B40BD037DF640EF1
:100E3000336E93EC02F03BDF0A0E336E93EC02F05C
:100E40003FD0928880A80BD04DDF640E336E93ECB8
:100E500002F02DDF0A0E336E93EC02F031D0928255
:100E600080A211D0968284A20ED0968484B40BD036
:100E70004BDF640E336E93EC02F019DF0A0E336E13
:100E800093EC02F01DD0928680A611D0968284A2A7
:100E90000ED0968484B40BD02EDF640E336E93ECA8
:100EA00002F005DF0A0E336E93EC02F009D093DCFA
:100EB000020E256EFA0E336E93EC02F0252EFAD751
:100EC00003EF08F0F86AD09E078E1C6A1B6A1A6A44
:100ED0007E0E196EC150C00B0F09C16E070EB46EA5
:100EE0006FEF03F093988A88939A8A9A74DC720E53
:100EF000F66E040EF76E5FDC040E256EFA0E336E8E
:100F000093EC02F0252EFAD7840EF66E040EF76EDF
:100F100052DC040E256EFA0E336E93EC02F0252E91
:100F2000FAD7920EF66E040EF76E45DC040E256EAF
:100F3000FA0E336E93EC02F0252EFAD7A20EF66E5F
:100F4000040EF76E38DC040E256EFA0E336E93EC49
:100F500002F0252EFAD7B20EF66E040EF76E2BDCD9
:100F6000040E256EFA0E336E93EC02F0252EFAD79E
:100F7000C00EF66E040EF76E1EDCCAD4020E256E8D
:100F8000FA0E336E93EC02F0252EFAD7C20EF66EEF
:100F9000040EF76E090E256EECDC010EE96E20C022
:100FA00028F01FC027F01EC026F01DC025F0296EB6
:100FB00056DD080E256EFA0E336E93EC02F0252EE8
:100FC000FAD7968084A002D0A8D623D021DED20EF4
:100FD000F66E040EF76E040E256ECBDC010EE96E84
:100FE0001CC028F01BC027F01AC026F019C025F03D
:100FF000296E35DD040E256EFA0E336E93EC02F089
:10100000252EFAD7F8D6DC0EF66E040EF76EDBEC62
:0610100003F0D7D7030036
:020000040030CA
:0E00000000C2180E008781000FC00FE00F40F5
:00000001FF
;PIC18F4520
;CRC=AAD3  CREATED="10-Jul-25 23:26"
