:100000000C946F000C949F000C94AD000C940000B5
:100010000C9400000C9400000C9400000C94000060
:100020000C9400000C9400000C9400000C94000050
:100030000C9400000C9400000C9400000C94000040
:100040000C9400000C9400000C9400000C94000030
:100050000C9400001027E80364000A00010000105F
:100060000001100001000000206C756920747261AD
:100070006900206C756920706861690020526520F4
:100080007472616900205265207068616900207493
:1000900069656E0044616E672051756F6320566913
:1000A00065740025326420636D0080C00A00600121
:1000B00068000A006A017200090074017C000900EE
:1000C0007D018500060086018E000F008C019400E2
:1000D0000200040066000200AA01AA000000F894D1
:1000E000EE27ECBBF1E0FBBFEBBFE5BFF8E1F1BDF4
:1000F000E1BD8DE0A2E0BB27ED938A95E9F780E0B2
:1001000094E0A0E6ED930197E9F7ECEAF0E0859141
:100110009591009761F0A591B59105901590BF015B
:10012000F00105900D920197E1F7FB01F0CFEFE5AB
:10013000EDBFE4E0EEBFC0E6D1E00C9407010E9401
:1001400010048CB49DB4D401EAE3F0E00E94A20450
:100150004F01F40137974F010DC00E941004ECB518
:10016000FDB5E419F5095F01D501EAE3F0E00E946D
:10017000A2045F01E991EFBFF991E991B991A991C9
:100180009991199009901895C098C19883E08A9523
:10019000F1F7C09A85E88A95F1F7C19AECE0F0E0B2
:1001A0000E941A04C09885E88A95F1F7C1980895CD
:1001B000C798C698C598C4980895C798C698C59A10
:1001C0000E941E04E0E6F1E01DC0C79AC698C598DB
:1001D0000E941E04EAE6F1E015C0C798C6980E9486
:1001E0002504E4E7F1E00EC0C798C69AC5980E94BE
:1001F0001E04EDE7F1E006C0C798C69A0E942504E8
:10020000E6E8F1E0FA93EA930E94B9030895E0E08A
:10021000EBBBEABBE8BBEFEFE7BBE0E0E5BBE4BB71
:10022000E2BBE3E0E1BBE0E0E3BFE2BFECBFEFBD78
:10023000EEBDEDBDECBDE7BDE6BDEBBDEABDE9BD84
:10024000E8BDE2BDE5BDE4BDE3BDEBB7E06CEBBFEF
:10025000EAE0E5BFE0E0E4BFE0ECEABFE0E0E9BFF0
:10026000EAB9E0E8E8B9E0E0E0BFE6B9EDB9E6BF39
:10027000E0E1EA930E94C803ECE8F1E00E942D045B
:10028000E0EDF7E00E941A040E94970378947CDF67
:10029000E0E0F0E0FDBDECBD829BFECFE2E0EEBD14
:1002A000839BFECF4CB45DB47724829B03C0EAE00D
:1002B0007E1608F006C07394E1E0F0E00E941A0494
:1002C000F4CFEDE2F0E08E169F06D0F48DDFEEE184
:1002D000F0E08E169F0618F4AE16BF0608F00FC0A9
:1002E0000E9431048A149B0410F467DF04C08A144E
:1002F0009B0428F06ADFE6E9F0E00E941A0420C0BF
:10030000EDE2F0E0AE16BF06D0F467DFEEE1F0E01C
:100310008E169F0618F4AE16BF0608F00FC00E9496
:1003200031048A149B0410F448DF04C08A149B042F
:1003300028F04BDFE6E9F0E00E941A0401C05CDF20
:100340000E949703E0E00E943604F4010E944404F6
:10035000EAE00E943604F5010E94440498CFFFCFE2
:100360001A930A93AA81BB8112960E94B504309712
:1003700059F1AA81BB8114960E94B5048F01309770
:1003800061F00230E0E01E07F0F0F80131978F01D4
:10039000AA81BB811496ED93FC93AA81BB8112962E
:1003A000ED91FD913196FE93EE933197AC81A08350
:1003B000AA81BB810E94B504FF232AF0ED91FD9133
:1003C0003196FE93EE9306C0AA81BB81EFEFFFEF5B
:1003D000ED93FC93198108812596089526970E9434
:1003E000C20410E0AC85BD85E0E0F0E0ED93FC9345
:1003F000EA89FB893196EA8BFB8B3197E4912E2FAA
:10040000E03011F40C941B03E12FE03039F4253275
:1004100011F411E002C00E944F040CC1E130A9F4B4
:10042000253219F40E944F0404C112E040E000E0BC
:100430002D3211F401E0FEC02B3211F44BE2FAC070
:10044000203211F440E2F6C002C0E23039F450E04C
:1004500013E0203311F40068EDC004C0E33011F064
:100460000C941A03203310F02A3308F007C0AAE0D6
:100470005A9F502DE22FE0535E0FDCC0E22FE3368F
:1004800049F40E945804E889F989A481AA930E943A
:100490005E04CFC0E33741F40E9458040E94660412
:1004A0000E94FB031E2F0AC0E03761F40E9458042B
:1004B0000E9466040E9405041E2F086002600F77E8
:1004C00030E035C0E43611F0E93611F4046002C0C2
:1004D000E53731F4E4E5F0E0EE83FF8315E00DC08D
:1004E000E83511F4086004C0E83711F00C941903E2
:1004F000EEE5F0E0EE83FF8314E002FF14C00E94FB
:1005000058040E947004AB85AA233AF4EA85FB855F
:100510000E949E04EA87FB874DE2403011F01F5F86
:1005200001C00B7F04C00E9458040E94700400FDAB
:1005300011C0151778F407FF08C002FF04C00B7F35
:10054000242F115001C020E301C020E20E944F047B
:100550005150EFCF312F01FF17C03030A1F003FF12
:1005600006C0EE81FF812591EE83FF8305C0AE8139
:10057000BF812D91AE83BF830E944F04503009F09C
:1005800051503150EACF4BC020E3EE81FF810E94F1
:10059000B904E887F987EE81FF813296EE83FF8305
:1005A000E885F985AA85BB85AE17BF0750F02F5F98
:1005B000A885B985EA85FB85EA1BFB0BEA87FB87E3
:1005C000EFCF2A3328F003FF02C0295F01C0295D65
:1005D00004FD1AC0213320F4A885B985119709F4C8
:1005E00009C0531710F000FF01C013C020E207FF3D
:1005F0000BC020E3006102FF07C00B7F4A930E94FB
:100600005E04503009F051500E944F04503009F000
:1006100051503150A885B985129708F0B5CF00FF29
:1006200008C0503031F05150E0E2EA930E945E047D
:10063000F8CF10E0DDCEAC85BD850E94B5040E94E8
:10064000C90464960895FF92F82E26970E94C40468
:100650000E947804309719F4EFEFFFEF25C0DE0118
:1006600016960E949A048D010E947804EE83FF83FF
:10067000E0E0E887E987DE011A960E949A040E946A
:10068000B504FA93EA931A930A93E0EBF1E0FA9334
:10069000EA93FE013A96FA93EA93A0DE9F01AE81B7
:1006A000BF81E0E0EC93F9010E94CB042A96FF9011
:1006B0000895E881E07111F0AC9A01C0AC98E8812E
:1006C000E07211F0AD9A01C0AD98E881E07411F0CC
:1006D000AE9A01C0AE98E881E07811F0AF9A01C0FF
:1006E000AF9885E08A95F1F7AA9A8DE08A95F1F79F
:1006F000AA988DE08A95F1F77CC0E881EA93D9DF6A
:10070000E881E295E883E881EA93D3DF85E88A957A
:10071000F1F76FC0E881F0E0E655FE4FE081A98176
:10072000EA0FEA93EADF6980D88022960895E2E032
:100730000E947F04ECE0EA93E0DFE1E00E947F04A6
:10074000E0E0DE2E6E2E0895A881AA3011F06C1420
:1007500048F0E0E0EA93D394DA92DCDFA881AA3093
:1007600009F447C06394A89AE881EA93C6DFA89881
:1007700040C01A93A981BA81ED91A983BA831E2F33
:10078000E03019F01A93E0DFF5CF18812396089531
:10079000A49AA59AA69AA79AA29AA09AA19AAA9868
:1007A000A898A998C880E881E058E093AC01E88156
:1007B000E054E093AD01E4E1F0E00E941A040E94ED
:1007C00085040E9485040E948504E0E2EA9371DFBB
:1007D00088EC90E00197F1F7E8E2EA938EDFE4E03D
:1007E000EA938BDFE5E8EA9388DFE6E0EA9385DFCA
:1007F0009EDF21960895A991B991EE27FF276D916B
:10080000662311F03196FBCF0895AA27BB27E99103
:10081000F9910590002011F01196FBCFFD0108958C
:100820000A921A929A93AA93BA93EA93FA93EFB719
:10083000EA930895FA93EA930C948E04C498E0E046
:10084000EA93E1E0EA930C948A03C598C49AE0E045
:10085000EA93E1E0EA930C948A03FA93EA930C9406
:10086000B9030E94D800E4E6F0E0E4CFEA93E0E0C8
:10087000EA930E948A03EBE9F1E0FA93EA93E3EA50
:10088000F0E0FA93EA930895662777270E94BD0463
:1008900084E00E9423032896EBE9F1E0DECF2A935F
:1008A000ED85FE85FA93EA93E989FA890995089519
:1008B000E889F9893497E88BF98B0895ED85FE85F1
:1008C000FA93EA93E989FA8909950895A889B9897B
:1008D00014960E94B504EE83FF83FA93EA93089579
:1008E000A889B98914960E94B504EA87FB87089500
:1008F000DE011C960E949A040E94B5040895EA93B2
:100900000E947D03E3E0F0E095CFE0E3EA930E94EC
:10091000590388EC90E00197F1F70895E991F99176
:10092000309639F080ED97E00197F1F7A89531976F
:10093000C9F708950024AF0DB01D0895F195E19514
:10094000F04008950024112490E1AA0FBB1F001C61
:10095000111C0E1A1F0A18F40E0E1F1E01C0A160F2
:100960009A9599F7FD01D0010895ED91FC911197A9
:1009700008950590F491E02D08957A936A93FA937F
:10098000EA9308955A934A933A932A931A930A93AF
:1009900008955D814C813B812A81198108810895E8
:00000001FF
