:10000000EDEF01F06E6869657420646F3A25332E58
:1000100031660D008E0E006E0BC001F00AC002F0BA
:10002000036A015209E102C001F0026A080E005E93
:10003000015202E1006A08D0D89001BE04D0023615
:1000400001360006F9D7019E1CEF02F01750D8B414
:1000500071D0006E1B50D8B46DD0002604E3810E21
:10006000002668E204D07F0E005E64E363E018C0FF
:100070001FF01C501F1A188E1C8E1A501E02F4CF2F
:1000800021F019501D02F4CF03F0F3CF20F01E022F
:10009000F3502126F4502022000E03221A501D0294
:1000A000F3502126F4502022000E026A032202227D
:1000B00018501E02F3502026F4500322000E022294
:1000C00018501D02F3500326F4500222000E016A5C
:1000D00001221A501C02F3502026F4500322000E75
:1000E0000222012219501C02F3500326F45002226E
:1000F000000E012218501C02F3500226F450012277
:10010000002A01BE05D0203603360236013600062D
:10011000000E20AE0AD0032A02220122015005E17E
:10012000025003E1035001E1002A1FBE018E1FAE01
:10013000019E04D0006A016A026A036A1200090083
:10014000F6CF0BF0F7CF0CF0F5509EA8FED7AD6EB2
:100150000BC0F6FF0CC0F7FF0A2EF1D73AEF02F002
:100160001750B608176E036A18C01BF0188ED89087
:10017000183219321A320332023201320032172E8B
:10018000F6D71BAE0BD0001E011E021E031E002A56
:10019000D8B4012AD8B4022AD8B4032A3EEF01F019
:1001A000D8B203D0EA6A1F0EE96E006A016A026AD9
:1001B000036A1F6A206A216A226A1E501D101C10E1
:1001C0001B102CE0200E236ED890173618361936E7
:1001D0001A361F362036213622361E50225C08E1A0
:1001E0001D50215C05E11C50205C02E11B501F5C8E
:1001F0000FE31B501F5E1C50D8A01C3C205E1D50FE
:10020000D8A01D3C215E1E50D8A01E3C225ED88086
:100210000036013602360336232ED6D71FC0EFFF35
:1002200020C0ECFF21C0ECFF22C0ECFF1200E9501F
:100230000F6E0E50116E19E00DC01AF00CC019F0BF
:100240000BC018F00AC017F01E6A1D6A200E1C6E43
:10025000820E1B6EFBDE03C00DF002C00CF001C06D
:100260000BF000C00AF0112EE7D70DC01AF00CC039
:1002700019F00BC018F00AC017F072D703C00DF0C8
:1002800002C00CF001C00BF000C00AF00DAE0DD0A2
:100290000F060F8A0A1E0B1E0C1E0D1E0A2AD8B44A
:1002A0000B2AD8B40C2AD8B40D2A3B0E166E9A0E1F
:1002B000156ECA0E146E136A0A0E116E0E50D8B463
:1002C0000F2AD882EA6A0A0EE96E0DC01AF00CC035
:1002D00019F00BC018F00AC017F016C01EF015C0B8
:1002E0001DF014C01CF013C01BF05ADF0150005267
:1002F0000FE10E28115C0CE00F500CE00F0B115CAD
:1003000001E03BE20FBE39D00FBC04D0200E30D04C
:10031000200E0F160FAA0DD00F9A0E50D8A40F065C
:1003200000500F6E2D0E9EA8FED7AD6E0F50006EC2
:100330000F6A0E50115C0BE100500F6E2E0E9EA83E
:10034000FED7AD6E0F50006E200E0F16000E300E51
:100350000FAA0ED00F9A0E50D8A40F0600500F6EA1
:100360002D0E9EA8FED7AD6E0F50006E0F6A300E98
:10037000002600509EA8FED7AD6ED89216C01AF087
:1003800015C019F014C018F013C017F01E6A1D6ACA
:100390001C6A0A0E1B6E04DF03C016F002C015F0C3
:1003A00001C014F000C013F0112E8BD747EF02F0FC
:1003B000EA6A0B0EE96EEF500EE0030E016E006A62
:1003C000002EFED7012EFBD7E30E006E002EFED7C7
:1003D0000000EF2EF2D750EF02F0F86AD09EEA6AE2
:1003E000E96AB8964D0EAF6EA60EAC6E900EAB6E6F
:1003F00000000000C150C00B0F09C16E070EB46EA3
:10040000C150C00B0E09C16EC050C00B0709C06EB1
:10041000C08EC280000E016EC250C30B0110C26EAE
:10042000C282C2B2FED7C3CF04F0C4CF05F005C06C
:100430000BF004C00AF0EED503C01AF002C019F0A8
:1004400001C018F000C017F01E6A1D6A7A0E1C6EFB
:100450007D0E1B6EFBDD03C009F002C008F001C079
:1004600007F000C006F0040EF66E000EF76E090EDF
:100470000A6E65D6020EE96E09C00DF008C00CF0D8
:1004800007C00BF006C00AF0010E0E6ED0D60D0E9E
:100490009EA8FED7AD6E040E0A6EFA0E0B6E88D7BC
:0804A0000A2EFBD7BDD70300B3
:020000040030CA
:0E00000000C2180E008781000FC00FE00F40F5
:00000001FF
;PIC18F4520
;CRC=CD68  CREATED="17-Apr-15 10:32"
