:1000000057EF01F0F76A140FF66E000EF7220900A1
:10001000F5501200280C0106444F20414E20544F49
:1000200054204E474849455000000C535620544830
:100030005543204849454E000C4E475559454E20E2
:100040004241205155414E0A00000C4E475559453A
:100050004E2051554F43205655000C44494E4820E0
:10006000445543204B484100EA6A080EE96EEF50C0
:100070000EE0030E016E006A002EFED7012EFBD7A4
:10008000E30E006E002EFED70000EF2EF2D7120016
:100090000FB002D08B9801D08B8894980FB202D009
:1000A0008B9A01D08B8A949A0FB402D08B9C01D08A
:1000B0008B8C949C0FB602D08B9E01D08B8E949E1D
:1000C00000008B80949000D000D000D08B90949052
:1000D0001200106A9488000E82B8010E1012948AE1
:1000E000000E82BA010E006ED89000360050101239
:1000F000948C000E82BC010E006E00360036FC0EA1
:10010000001600501012948E000E82BE010E006E7A
:10011000003600360036F80E00160050101210C0DF
:1001200001F012009488948A948C948E8B8294921D
:1001300000008B8094900000CCDF01C00FF08B900A
:10014000949000008B80949000D00000C2DF01C02A
:100150000EF08B9094909498949A949C949E0F385F
:10016000006EF00E001600500E10016EBEEF00F093
:100170009490949694928B969496D4D701C00EF056
:1001800001BEFBD70C5202E18B9601D08B86949670
:1001900000008B92949200008B9094900D380E6E1C
:1001A0000F0E0E160EC00FF073DF0D500F0B0E6EFC
:1001B0000F6E6EDF12009498949A949C949E949083
:1001C000949694928B9694968B9294928B90949012
:1001D0000F0E086E49DF010E056E0550030808E397
:1001E000030E0F6E55DF050E086E3EDF052AF5D7AC
:1001F000020E0F6E4DDF050E086E36DF056A0550E4
:10020000030809E3036A0550FDDE066E0C6A0D6EF5
:10021000AFDF052AF4D762EF01F0092C01D003D03B
:10022000400E0A6E01D00A6A010E085C0A260A50C6
:1002300080090B6E0C6A0D6E9BDF12000750070AD7
:1002400007E00B0A0AE0060A10E0020A14E018D0E0
:10025000010E086E096EE1DF18D00C6A010E0D6EFA
:1002600087DF020E086E00DF10D0010E086E020E4E
:10027000096ED3DF0AD00C6A100E0D6E79DF05D03F
:10028000010E0C6E07C00DF073DF51EF01F0090095
:10029000F5520CE0F6CF05F0F7CF06F0F5CF07F0FA
:1002A000CDD705C0F6FF06C0F7FFF1D71200F86AF8
:1002B000D09EEA6AE96AC150C00B0F09C16E070EF1
:1002C000B46E79D7180EF66E000EF76EE0DF640E8E
:1002D000086ECADE2A0EF66E000EF76ED8DF640EC8
:1002E000086EC2DE380EF66E000EF76ED0DF640EBA
:1002F000086EBADE4A0EF66E000EF76EC8DF640EA8
:10030000086EB2DE5A0EF66E000EF76EC0DF640E97
:08031000086EAADEFFD703000E
:020000040030CA
:0E00000000C2180E008781000FC00FE00F40F5
:00000001FF
;PIC18F4520
;CRC=C6EA  CREATED="10-Apr-15 18:21"
