:04000000E1EF04F038
:08000800046ED8CF05F0E0CF33
:1000100006F00001E9CF0CF0EACF07F0E1CF08F0DD
:10002000E2CF09F0D9CF0AF0DACF0BF0F3CF12F01C
:10003000F4CF13F0FACF14F0F5CF15F0F6CF16F099
:10004000F7CF17F000C00EF001C00FF002C010F0A3
:1000500003C011F0F2A830EF00F0F2B2D7EF01F0D8
:10006000F0A636EF00F0F0B008EF02F00EC000F09E
:100070000FC001F010C002F011C003F00CC0E9FF86
:1000800007C0EAFF078E08C0E1FF09C0E2FF0AC00F
:10009000D9FF0BC0DAFF12C0F3FF13C0F4FF14C086
:1000A000FAFF15C0F5FF16C0F6FF17C0F7FF0450A2
:1000B00006C0E0FF05C0D8FF1000F76ACA0FF66E51
:1000C000000EF7220900F5501200280C0106800EE0
:1000D000D8B2331A386A396A2FC037F03350371A1A
:1000E0002E50D8B4DCD0366E006E3250D8B4E0D08A
:1000F000365ED8B481D03DE333C03CF03C8E34C092
:100100003BF035C03AF0396AD8903C323B323A3253
:100110003932362EF8D737AE03D03880DDD038905C
:1001200036903888EA6A310EE96EE9D0389837BEE1
:100130000AD036A013D03C323B323A323932002A50
:10014000D8B4C5D00BD03CBE0CD0D89039363A3696
:100150003B363C360006D8B4BAD0F5D7388C6BD0D5
:10016000389C2FC037F02FAE02D03C8EA9D03C9ED9
:10017000A7D032C036F032C000F02E50365E2FC00D
:100180003CF03C8E30C03BF031C03AF0396AD89038
:100190003C323B323A323932362EF8D737AE03D0C2
:1001A00038829AD038923690388AEA6A350EE96EEB
:1001B000A6D0389A37BE0AD036A013D03C323B3294
:1001C0003A323932002AD8B482D00BD03CBE0CD09F
:1001D000D89039363A363B363C360006D8B477D01C
:1001E000F5D7388E28D0389E33C037F033AE02D0E2
:1001F0003C8E66D03C9E64D033C03CF03C8E34C014
:100200003BF035C03AF037AE04D03C9E388464D021
:100210003894396A3690EA6A310EE96E70D037BE8A
:100220001CD02FC037F036A006D03C323B323A32D9
:100230003932002A4CE039AE0BD03A2A09E13B2A88
:1002400007E13C2A05E13C323B323A32002A3FE0EA
:1002500038BC86D738BEC7D71CD0800E3C1A3CAEFF
:1002600004D03AD033C037F00AD02FC037F03C5218
:1002700006E13B5204E13A5202E1006A21D03CBE61
:1002800008D0D89039363A363B363C36002EF7D770
:100290001ED037AE02D03C8E13D03C9E11D032C05F
:1002A00000F033C03CF034C03BF035C03AF008D029
:1002B0002EC000F02FC03CF030C03BF031C03AF00F
:1002C0003CC001F03BC002F03AC003F034D0006AF9
:1002D000016A026A036A2FD0396A3A1E3B1E3C1E2D
:1002E000391E392A05E13A2A03E13B2A01E13C2A79
:1002F00038B015D738B256D738B48AD7B3D7EF50FD
:100300003A2605E33B2A03E13C2AD8B43680ED5275
:10031000EF503B2603E33C2AD8B43680ED52EF5031
:10032000EFBE01D0800A3C26D8B0368038B8FED661
:1003300038BA3FD774D712002FC036F03350361A70
:1003400036AE05D0D894D8902FBED8802FD02FC0ED
:1003500036F032C037F02E50375E06E036AE26D08B
:10036000D850010AD86E22D033C037F02F50375EF4
:1003700006E036AE1BD0D850010AD86E17D034C074
:1003800037F03050375E06E036AE10D0D850010A54
:10039000D86E0CD035C037F03150375E06E036AE3F
:1003A00005D0D850010AD86E01D0D8901200D8924A
:1003B0001CC031F01BC030F01AC02FF019C02EF055
:1003C000CD0E356ECC0E346E4C0E336E7B0E326E0F
:1003D0007EDE03C01CF002C01BF001C01AF000C09A
:1003E00019F0316A306A2F6A7F0E2E6E1CC035F00C
:1003F0001BC034F01AC033F019C032F09DDF05E3A2
:100400001C6A1B6A1A6A7F0E196EF29236EF00F0B0
:10041000D8821CC031F01BC030F01AC02FF019C0B8
:100420002EF0CD0E356ECC0E346E4C0E336E7B0E30
:10043000326E4DDE03C01CF002C01BF001C01AF08A
:1004400000C019F01CC031F01BC030F01AC02FF0F2
:1004500019C02EF0CD0E356ECC0E346E4C0E336EB0
:100460007B0E326E69DF08E3CD0E1C6ECC0E1B6E68
:100470004C0E1A6E7B0E196EF09036EF00F0444F62
:1004800020414E20544F54204E47484945500000CB
:100490000C53562054485543204849454E000C4EB5
:1004A000475559454E204241205155414E0A0000C2
:1004B0000C4E475559454E2051554F432056550037
:1004C0000C44494E4820445543204B484100746930
:1004D000656E00000C006C7569000C007472616937
:1004E00000000C007068616900000C000C0064756D
:1004F0006E6700000C00EA6A220EE96EEF500EE013
:10050000030E016E006A002EFED7012EFBD7E30E0C
:10051000006E002EFED70000EF2EF2D7120029B099
:1005200002D08B9801D08B88949829B202D08B9AF4
:1005300001D08B8A949A29B402D08B9C01D08B8CE9
:10054000949C29B602D08B9E01D08B8E949E000085
:100550008B80949000D000D000D08B9094901200AB
:100560002A6A9488000E82B8010E2A12948A000E1C
:1005700082BA010E006ED890003600502A12948C78
:10058000000E82BC010E006E00360036FC0E001616
:1005900000502A12948E000E82BE010E006E0036AC
:1005A00000360036F80E001600502A122AC001F05C
:1005B00012009488948A948C948E8B82949200007A
:1005C0008B8094900000CCDF01C029F08B90949038
:1005D00000008B80949000D00000C2DF01C028F0A2
:1005E0008B9094909498949A949C949E2938006E41
:1005F000F00E001600502810016E05EF03F09490E5
:10060000949694928B969496D4D701C028F001BE0C
:10061000FBD7265202E18B9601D08B869496000080
:100620008B92949200008B9094902738286E0F0E36
:10063000281628C029F073DF27500F0B286E296E6B
:100640006EDF12009498949A949C949E9490949641
:1006500094928B9694968B9294928B9094900F0E8A
:10066000226E49DF010E1F6E1F50030808E3030EC0
:10067000296E55DF050E226E3EDF1F2AF5D7020ECA
:10068000296E4DDF050E226E36DF1F6A1F500308EC
:1006900009E3036A1F5011DD206E266A276EAFDF63
:1006A0001F2AF4D708EF05F0232C01D003D0400E09
:1006B000246E01D0246A010E225C24262450800975
:1006C000256E266A276E9BDF12002150070A07E07D
:1006D0000B0A0AE0060A10E0020A14E018D0010E24
:1006E000226E236EE1DF18D0266A010E276E87DFA7
:1006F000020E226E00DF10D0010E226E020E236E5B
:10070000D3DF0AD0266A100E276E79DF05D0010EDE
:10071000266E21C027F073DF98EF03F00900F55231
:100720000CE0F6CF1FF0F7CF20F0F5CF21F0CDD7BA
:100730001FC0F6FF20C0F7FFF1D71200928280A2FF
:1007400011D0956A050E8C6ECE0EF66E040EF76E05
:10075000E5DF140E226ECFDED40EF66E040EF76EB9
:10076000DDDF50D0928480A411D0956A0A0E8C6E81
:10077000D60EF66E040EF76ED1DF140E226EBBDEBF
:10078000DA0EF66E040EF76EC9DF3CD0928680A6B4
:1007900011D0956A040E8C6EDC0EF66E040EF76EA8
:1007A000BDDF140E226EA7DEE20EF66E040EF76EAB
:1007B000B5DF28D0928880A811D0956A010E8C6E82
:1007C000E40EF66E040EF76EA9DF140E226E93DEB1
:1007D000EA0EF66E040EF76EA1DF14D0EC0EF66E84
:1007E000040EF76E9BDF956A8C6AEE0EF66E040EB1
:1007F000F76E94DF140E226E7EDEF40EF66E040E9B
:10080000F76E8CDF31EF05F02350D8B471D0006E55
:100810002750D8B46DD0002604E3810E002668E28C
:1008200004D07F0E005E64E363E024C02BF0285008
:100830002B1A248E288E26502A02F4CF2DF0255014
:100840002902F4CF03F0F3CF2CF02A02F3502D2627
:10085000F4502C22000E032226502902F3502D269C
:10086000F4502C22000E026A0322022224502A0293
:10087000F3502C26F4500322000E022224502902A9
:10088000F3500326F4500222000E016A0122265082
:100890002802F3502C26F4500322000E02220122DB
:1008A00025502802F3500326F4500222000E0122A4
:1008B00024502802F3500226F4500122002A01BEDF
:1008C00005D02C360336023601360006000E2CAE5B
:1008D0000AD0032A02220122015005E1025003E15D
:1008E000035001E1002A2BBE018E2BAE019E04D0E5
:1008F000006A016A026A036A12008E0E006E1F50BF
:10090000005E20C002F021C001F0028E005209E01A
:10091000D890025202E1015204E002320132002E6C
:10092000F7D720AE05D0011E021E012AD8B4022A34
:10093000C8EF04F01CC026F01BC025F01AC024F03C
:1009400019C023F02A6A296A286A810E276E5CDFA3
:1009500000C01FF001C020F002C021F003C022F04F
:1009600003C026F002C025F001C024F000C023F02F
:100970002A6A296A160E286E850E276E45DF03C087
:1009800022F002C021F001C020F000C01FF0B5D756
:1009900002C01EF001C01DF01EC002F01DC001F01B
:1009A0000232013202320132023201C0BEFF023293
:1009B0000230300B006EBD50CF0B0010BD6E32EF19
:1009C00005F0F86AD09E078EEA6AE96ACD0E1C6EC1
:1009D000CC0E1B6E4C0E1A6E7B0E196EC150C00BE6
:1009E0000F09C16E070EB46EC00EF212F288F086C7
:1009F000F288F18CF086F18A000E0509CA6E4A0E63
:100A0000CB6E94948B940C0EBD6EB76AB66A1AD6F0
:100A10007E0EF66E040EF76E81DE640E226E6BDDC6
:100A2000900EF66E040EF76E79DE640E226E63DDB4
:100A30009E0EF66E040EF76E71DE640E226E5BDDA6
:100A4000B00EF66E040EF76E69DE640E226E53DD94
:100A5000C00EF66E040EF76E61DE640E226E4BDD84
:080A60006DD668D7FDD7030035
:020000040030CA
:0E00000000C2180E008781000FC00FE00F40F5
:00000001FF
;PIC18F4520
;CRC=9376  CREATED="15-Apr-15 18:33"
