:040000004FEF06F0C8
:08000800046ED8CF05F0E0CF33
:1000100006F00001E9CF0CF0EACF07F0E1CF08F0DD
:10002000E2CF09F0D9CF0AF0DACF0BF0F3CF12F01C
:10003000F4CF13F0FACF14F0F5CF15F0F6CF16F099
:10004000F7CF17F000C00EF001C00FF002C010F0A3
:1000500003C011F09DA030EF00F09EB09CEF01F0C6
:10006000F0A836EF00F0F0B2D9EF01F00EC000F0CA
:100070000FC001F010C002F011C003F00CC0E9FF86
:1000800007C0EAFF078E08C0E1FF09C0E2FF0AC00F
:10009000D9FF0BC0DAFF12C0F3FF13C0F4FF14C086
:1000A000FAFF15C0F5FF16C0F6FF17C0F7FF0450A2
:1000B00006C0E0FF05C0D8FF1000F76ACA0FF66E51
:1000C000000EF7220900F5501200280C0106800EE0
:1000D000D8B2401A456A466A3CC044F04050441ABF
:1000E0003B50D8B4DCD0436E006E3F50D8B4E0D063
:1000F000435ED8B481D03DE340C049F0498E41C051
:1001000048F042C047F0466AD890493248324732F8
:100110004632432EF8D744AE03D04580DDD045901B
:1001200043904588EA6A3E0EE96EE9D0459844BEA0
:100130000AD043A013D04932483247324632002A0F
:10014000D8B4C5D00BD049BE0CD0D890463647366F
:10015000483649360006D8B4BAD0F5D7458C6BD0AE
:10016000459C3CC044F03CAE02D0498EA9D0499E8B
:10017000A7D03FC043F03FC000F03B50435E3CC0BF
:1001800049F0498E3DC048F03EC047F0466AD890DD
:100190004932483247324632432EF8D744AE03D074
:1001A00045829AD045924390458AEA6A420EE96EAA
:1001B000A6D0459A44BE0AD043A013D04932483253
:1001C00047324632002AD8B482D00BD049BE0CD078
:1001D000D89046364736483649360006D8B477D0E8
:1001E000F5D7458E28D0459E40C044F040AE02D0A1
:1001F000498E66D0499E64D040C049F0498E41C0C6
:1002000048F042C047F044AE04D0499E458464D0D3
:100210004594466A4390EA6A3E0EE96E70D044BE49
:100220001CD03CC044F043A006D04932483247328B
:100230004632002A4CE046AE0BD0472A09E1482A54
:1002400007E1492A05E1493248324732002A3FE0B6
:1002500045BC86D745BEC7D71CD0800E491A49AECB
:1002600004D03AD040C044F00AD03CC044F04952D7
:1002700006E1485204E1475202E1006A21D049BE3A
:1002800008D0D8904636473648364936002EF7D73C
:100290001ED044AE02D0498E13D0499E11D03FC02B
:1002A00000F040C049F041C048F042C047F008D0DB
:1002B0003BC000F03CC049F03DC048F03EC047F0B4
:1002C00049C001F048C002F047C003F034D0006AD2
:1002D000016A026A036A2FD0466A471E481E491EF9
:1002E000461E462A05E1472A03E1482A01E1492A38
:1002F00045B015D745B256D745B48AD7B3D7EF50D6
:10030000472605E3482A03E1492AD8B44380ED5241
:10031000EF50482603E3492AD8B44380ED52EF500A
:10032000EFBE01D0800A4926D8B0438045B8FED63A
:1003300045BA3FD774D71200F29CF29EF2BEFDD7A9
:10034000D8921CC03EF01BC03DF01AC03CF019C052
:100350003BF0426A41687F0E406E8E0E3F6EB7DE04
:1003600003C01CF002C01BF001C01AF000C019F05D
:10037000C00EF2129E9036EF00F08E0E006E3CC062
:1003800001F03BC002F0036A015209E102C001F032
:10039000026A080E005E015202E1006A08D0D8909D
:1003A00001BE04D0023601360006F9D7019EE4EF03
:1003B00001F0F29CF29EF2BEFDD7CE50CFCF03F0FB
:1003C0003B6ECFCF3CF0D9D7D8921CC03EF01BC0BB
:1003D0003DF01AC03CF019C03BF003C042F002C02F
:1003E00041F001C040F000C03FF071DE03C01CF0DE
:1003F00002C01BF001C01AF000C019F0C00EF212CA
:10040000F09236EF00F04E475559454E20424120BC
:100410005155414E00000C000C006B6F20636F20A3
:100420007661742063616E000C006B686F616E67AB
:1004300020636163683A25332E326600EA6A2F0E24
:10044000E96EEF500EE0030E016E006A002EFED73B
:10045000012EFBD7E30E006E002EFED70000EF2E1C
:10046000F2D7120036B002D08B9801D08B889498C6
:1004700036B202D08B9A01D08B8A949A36B402D0CD
:100480008B9C01D08B8C949C36B602D08B9E01D075
:100490008B8E949E00008B80949000D000D000D072
:1004A0008B9094901200376A9488000E82B8010EE7
:1004B0003712948A000E82BA010E006ED890003670
:1004C00000503712948C000E82BC010E006E003674
:1004D0000036FC0E001600503712948E000E82BEBD
:1004E000010E006E003600360036F80E0016005081
:1004F000371237C001F012009488948A948C948E3D
:100500008B82949200008B8094900000CCDF01C01D
:1005100036F08B90949000008B80949000D0000077
:10052000C2DF01C035F08B9094909498949A949C7B
:10053000949E3638006EF00E001600503510016E95
:10054000A8EF02F09490949694928B969496D4D7B8
:1005500001C035F001BEFBD7335202E18B9601D0CA
:100560008B86949600008B92949200008B909490CE
:100570003438356E0F0E351635C036F073DF345013
:100580000F0B356E366E6EDF12009498949A949C21
:10059000949E9490949694928B9694968B92949227
:1005A0008B9094900F0E2F6E49DF010E216E21501B
:1005B000030808E3030E366E55DF050E2F6E3EDF8F
:1005C000212AF5D7020E366E4DDF050E2F6E36DF6F
:1005D000216A2150030809E3036A21506EDD226E6F
:1005E000336A346EAFDF212AF4D766EF06F0302C81
:1005F00001D003D0400E316E01D0316A010E2F5C64
:10060000312631508009326E336A346E9BDF12001E
:100610002E50070A07E00B0A0AE0060A10E0020A59
:1006200014E018D0010E2F6E306EE1DF18D0336A5F
:10063000010E346E87DF020E2F6E00DF10D0010E28
:100640002F6E020E306ED3DF0AD0336A100E346E76
:1006500079DF05D0010E336E2EC034F073DF120047
:100660000900F5520CE0F6CF21F0F7CF22F0F5CFDC
:100670002EF0CEDF21C0F6FF22C0F7FFF1D7120027
:1006800093968A86310E006E002EFED700D0939688
:100690008A96938481A4FDD7CF6ACE6AC00EF212E7
:1006A000320E2F6ECBDE46EF04F02AC031F02E5012
:1006B000311A31AE05D0D894D8902ABED8802FD028
:1006C0002AC031F02DC032F02950325E06E031AE42
:1006D00026D0D850010AD86E22D02EC032F02A502F
:1006E000325E06E031AE1BD0D850010AD86E17D06A
:1006F0002FC032F02B50325E06E031AE10D0D85011
:10070000010AD86E0CD030C032F02C50325E06E0B8
:1007100031AE05D0D850010AD86E01D0D890120061
:100720002950D8B4A5D0356E2D50D8B4A1D0355E9F
:1007300005E37F0E3526D8B09BD006D0810E355EFE
:10074000D8A096D0D8B494D035C000F0016A026A1F
:10075000036A346A2AC033F0338E2BC032F02CC0C7
:1007600031F0190E356E3050315E0DE2010E325E01
:100770000AE2335E08E2345E06E2342A332A322A81
:100780003050312628D02F50325E12E2010E335EF7
:100790000FE2345E0DE2342A332A2F5032263050D5
:1007A000312619E3322A17E1332A15E1342A13D00E
:1007B0002E508009335E0EE2010E345E0BE2342AC5
:1007C0002E50800933262F503226E9E3332AE7E101
:1007D000342AE5D70380352E01D00BD0D89031369E
:1007E000323633363436D890033602360136363652
:1007F000BAD736A006D0D890013202320332363250
:1008000002D0000635E036BE1ED0D89031363236E2
:10081000333634363050315E07E2010E325E04E288
:10082000335E02E2345E1AE32F50325E05E2010EBF
:10083000335E02E2345E12E32E508009335E03E23F
:10084000010E345E0BE3032A09E1022A07E1012AC3
:1008500005E1002A0DE00132023203322AC035F0F0
:100860002E50351A35AE02D0018E06D0019E04D02E
:10087000006A016A026A036A1200246A236A226A11
:10088000216A286A276A266A256AFAD6F29CF29EAD
:10089000F2BEFDD72C6AC80E2B6E2F0E2A6E900E5C
:1008A000296E1CC030F01BC02FF01AC02EF019C0EA
:1008B0002DF0FBDE0AE31C6A1B6A1A6A196A006AD9
:1008C000016A026A036A3BD03AD01CC02CF01BC0FC
:1008D0002BF01AC02AF019C029F0306A2F6A400E96
:1008E0002E6E810E2D6E1CDF03C024F002C023F09B
:1008F00001C022F000C021F024C02CF023C02BF056
:1009000022C02AF021C029F0306A2F6A680E2E6EAC
:10091000840E2D6E05DF03C028F002C027F001C051
:1009200026F000C025F01C6A1B6A1A6A196A25C0E5
:1009300000F026C001F027C002F028C003F077EFD6
:1009400006F00900F6CF22F0F7CF23F0F5CF2EF016
:100950005FDE22C0F6FF23C0F7FF212EF2D7A4EFFF
:1009600006F02E50D8B471D0006E3250D8B46DD08D
:10097000002604E3810E002668E204D07F0E005EAC
:1009800064E363E02FC036F03350361A2F8E338E77
:1009900031503502F4CF38F030503402F4CF03F048
:1009A000F3CF37F03502F3503826F4503722000EDB
:1009B000032231503402F3503826F4503722000E0F
:1009C000026A032202222F503502F3503726F450D8
:1009D0000322000E02222F503402F3500326F4505B
:1009E0000222000E016A012231503302F3503726F1
:1009F000F4500322000E0222012230503302F35041
:100A00000326F4500222000E01222F503302F3502D
:100A10000226F4500122002A01BE05D037360336E3
:100A2000023601360006000E37AE0AD0032A022233
:100A30000122015005E1025003E1035001E1002AC7
:100A400036BE018E36AE019E04D0006A016A026A8B
:100A5000036AA6EF05F02E50B6082E6E036A2FC06B
:100A600032F02F8ED8902F323032313203320232B0
:100A7000013200322E2EF6D732AE0BD0001E011EF0
:100A8000021E031E002AD8B4012AD8B4022AD8B400
:100A9000032AB9EF05F0D8B203D0EA6A360EE96E40
:100AA000006A016A026A036A366A376A386A396A12
:100AB00035503410331032102CE0200E3A6ED8909E
:100AC0002E362F36303631363636373638363936DA
:100AD0003550395C08E13450385C05E13350375CFF
:100AE00002E13250365C0FE33250365E3350D8A00C
:100AF000333C375E3450D8A0343C385E3550D8A0F3
:100B0000353C395ED88000360136023603363A2E3F
:100B1000D6D736C0EFFF37C0ECFF38C0ECFF39C086
:100B2000ECFF1200E950266E2550286E19E024C013
:100B300031F023C030F022C02FF021C02EF0356AF2
:100B4000346A200E336E820E326E0BD703C024F04F
:100B500002C023F001C022F000C021F0282EE7D708
:100B600024C031F023C030F022C02FF021C02EF07D
:100B700072D703C024F002C023F001C022F000C0ED
:100B800021F024AE0DD02606268A211E221E231E09
:100B9000241E212AD8B4222AD8B4232AD8B4242A3D
:100BA0003B0E2D6E9A0E2C6ECA0E2B6E2A6A0A0E02
:100BB000286E2550D8B4262AD882EA6A210EE96E1A
:100BC00024C031F023C030F022C02FF021C02EF01D
:100BD0002DC035F02CC034F02BC033F02AC032F0D9
:100BE0005ADF015000520FE12528285C0CE0265006
:100BF0000CE00F0B285C01E037E226BE35D026BCA6
:100C000004D0200E2DD0200E261626AA0CD0269A0F
:100C10002550D8A426060050266E2D0E2E6EF8DC28
:100C20002650006E266A2550285C0AE10050266E88
:100C30002E0E2E6EEDDC2650006E200E2616000EB7
:100C4000300E26AA0DD0269A2550D8A4260600508C
:100C5000266E2D0E2E6EDCDC2650006E266A300EBF
:100C6000002600C02EF0D4DCD8922DC031F02CC06C
:100C700030F02BC02FF02AC02EF0356A346A336A68
:100C80000A0E326E08DF03C02DF002C02CF001C046
:100C90002BF000C02AF0282E8FD7B0EF06F0F86AAC
:100CA000D09E078EEA6AE96AC150C00B0F09C16E77
:100CB000070EB46EF088F088F188850ECD6E9D80A9
:100CC000F29CF29EF2BEFDD7F19E5FD400D00000F0
:100CD000060EF66E040EF76EC3DC640E2F6E1EEC6D
:100CE00002F0160EF66E040EF76EBADCC6D503C01F
:100CF00020F002C01FF001C01EF000C01DF020C097
:100D00002CF01FC02BF01EC02AF01DC029F0306A45
:100D10002F6A2E6A2D6AC9DC0BE1180EF66E040EDE
:100D2000F76E9EDC1A0EF66E040EF76E99DC1CD080
:100D3000280EF66E040EF76E93DC2A0EF66E040E85
:100D4000F76E0C0E216EFDD5020EE96E20C024F068
:100D50001FC023F01EC022F01DC021F0256EE2D678
:0C0D6000320E2F6E1EEC02F0C1D7030013
:020000040030CA
:0E00000000C2180E008781000FC00FE00F40F5
:00000001FF
;PIC18F4520
;CRC=0347  CREATED="16-Apr-15 10:30"
