:0400000092EF06F085
:08000800046ED8CF05F0E0CF33
:1000100006F00001E9CF0CF0EACF07F0E1CF08F0DD
:10002000E2CF09F0D9CF0AF0DACF0BF0F3CF12F01C
:10003000F4CF13F0FACF14F0F5CF15F0F6CF16F099
:10004000F7CF17F000C00EF001C00FF002C010F0A3
:1000500003C011F0F2A830EF00F0F2B2CDEF01F0E2
:10006000F0A636EF00F0F0B0FEEF01F00EC000F0A9
:100070000FC001F010C002F011C003F00CC0E9FF86
:1000800007C0EAFF078E08C0E1FF09C0E2FF0AC00F
:10009000D9FF0BC0DAFF12C0F3FF13C0F4FF14C086
:1000A000FAFF15C0F5FF16C0F6FF17C0F7FF0450A2
:1000B00006C0E0FF05C0D8FF1000800ED8B2441A79
:1000C000496A4A6A40C048F04450481A3F50D8B480
:1000D000DCD0476E006E4350D8B4E0D0475ED8B451
:1000E00081D03DE344C04DF04D8E45C04CF046C03C
:1000F0004BF04A6AD8904D324C324B324A32472E3E
:10010000F8D748AE03D04980DDD049904790498860
:10011000EA6A420EE96EE9D0499848BE0AD047A083
:1001200013D04D324C324B324A32002AD8B4C5D0AB
:100130000BD04DBE0CD0D8904A364B364C364D368F
:100140000006D8B4BAD0F5D7498C6BD0499C40C0D2
:1001500048F040AE02D04D8EA9D04D9EA7D043C0EE
:1001600047F043C000F03F50475E40C04DF04D8E19
:1001700041C04CF042C04BF04A6AD8904D324C32EC
:100180004B324A32472EF8D748AE03D049829AD034
:1001900049924790498AEA6A460EE96EA6D0499A82
:1001A00048BE0AD047A013D04D324C324B324A32AF
:1001B000002AD8B482D00BD04DBE0CD0D8904A368D
:1001C0004B364C364D360006D8B477D0F5D7498E2D
:1001D00028D0499E44C048F044AE02D04D8E66D02F
:1001E0004D9E64D044C04DF04D8E45C04CF046C08D
:1001F0004BF048AE04D04D9E498464D049944A6A7D
:100200004790EA6A420EE96E70D048BE1CD040C0EA
:1002100048F047A006D04D324C324B324A32002AC9
:100220004CE04AAE0BD04B2A09E14C2A07E14D2A9B
:1002300005E14D324C324B32002A3FE049BC86D7B3
:1002400049BEC7D71CD0800E4D1A4DAE04D03AD04F
:1002500044C048F00AD040C048F04D5206E14C522C
:1002600004E14B5202E1006A21D04DBE08D0D89083
:100270004A364B364C364D36002EF7D71ED048AE98
:1002800002D04D8E13D04D9E11D043C000F044C01B
:100290004DF045C04CF046C04BF008D03FC000F0D8
:1002A00040C04DF041C04CF042C04BF04DC001F099
:1002B0004CC002F04BC003F034D0006A016A026AFD
:1002C000036A2FD04A6A4B1E4C1E4D1E4A1E4A2AF4
:1002D00005E14B2A03E14C2A01E14D2A49B015D72B
:1002E00049B256D749B48AD7B3D7EF504B2605E366
:1002F0004C2A03E14D2AD8B44780ED52EF504C26EA
:1003000003E34D2AD8B44780ED52EF50EFBE01D041
:10031000800A4D26D8B0478049B8FED649BA3FD7A3
:1003200074D7120040C047F04450471A47AE05D07A
:10033000D894D89040BED8802FD040C047F043C05A
:1003400048F03F50485E06E047AE26D0D850010A3C
:10035000D86E22D044C048F04050485E06E047AE18
:100360001BD0D850010AD86E17D045C048F0415074
:10037000485E06E047AE10D0D850010AD86E0CD0C7
:1003800046C048F04250485E06E047AE05D0D8501F
:10039000010AD86E01D0D8901200D8821CC042F059
:1003A0001BC041F01AC040F019C03FF0CD0E466EA0
:1003B000CC0E456E4C0E446E7B0E436E7EDE03C04B
:1003C0001CF002C01BF001C01AF000C019F01CC0E4
:1003D00042F01BC041F01AC040F019C03FF0466A1D
:1003E000456A446A7E0E436E9DDF05E31C6A1B6A04
:1003F0001A6A7E0E196EF29236EF00F0D8921CC087
:1004000042F01BC041F01AC040F019C03FF0CD0EC1
:10041000466ECC0E456E4C0E446E7B0E436E4DDE2A
:1004200003C01CF002C01BF001C01AF000C019F09C
:10043000426A416A406A7F0E3F6E1CC046F01BC094
:1004400045F01AC044F019C043F06CDF05E31C6AA4
:100450001B6A1A6A7F0E196EF09036EF00F0444F57
:1004600020414E20544F54204E47484945500000EB
:100470000C53562054485543204849454E000C4ED5
:10048000475559454E204241205155414E0A0000E2
:100490000C4E475559454E2051554F432056550057
:1004A0000C44494E4820445543204B4841000C0021
:1004B0006E6869657420646F3A25332E31660000DA
:1004C00050574D3A25322E3166000C006875742065
:1004D000627569000C000C20526F626F74207469A1
:1004E000656E00000C20526F626F74206C7569009D
:1004F0000C2052652074726169000C2052652070D6
:10050000686169000C20526F626F742064756E67B9
:1005100000008350006E00380F0B016E12000F0EAA
:100520009514F009956E8C8400008C800000F1DF3A
:1005300001C03AF08C9000008C8000D00000E9DF10
:1005400001C039F08C900F0E9514956E3A38006EFC
:10055000F00E001600503910016EC2EF02F03A386A
:10056000F00B006E0F0E8C1400108C6E00008C804F
:1005700000D000D000D08C90120095909592959468
:100580008C92CDD701C039F001BEFBD78C9237B029
:100590008C8200008C9400008C903838396E0F0EDD
:1005A000391639C03AF0DBDF38500F0B396E3A6E2E
:1005B000D6DF1200342C01D003D0400E356E01D0AE
:1005C000356A010E335C352635508009366E376A40
:1005D000386ED3DF1200EA6A330EE96EEF500EE098
:1005E000030E016E006A002EFED7012EFBD7E30E2C
:1005F000006E002EFED70000EF2EF2D71200325010
:10060000070A07E00B0A0AE0060A10E0020A14E0F3
:1006100018D0010E336E346ECDDF18D0376A010E5C
:10062000386EABDF020E336ED6DF10D0010E336EA4
:10063000020E346EBFDF0AD0376A100E386E9DDFAF
:1006400005D0010E376E32C038F097DF1200090076
:10065000F5520CE0F6CF25F0F7CF26F0F5CF32F0CB
:10066000CEDF25C0F6FF26C0F7FFF1D71200956A4E
:100670008C6A040EF66E050EF76EE9DF12008E0E20
:10068000006E26C001F025C002F0036A015209E1A4
:1006900002C001F0026A080E005E015202E1006A27
:1006A00008D0D89001BE04D0023601360006F9D732
:1006B000019EE0EF03F03250D8B471D0006E365096
:1006C000D8B46DD0002604E3810E002668E204D081
:1006D0007F0E005E64E363E033C03AF037503A1AAD
:1006E000338E378E35503902F4CF3CF03450380217
:1006F000F4CF03F0F3CF3BF03902F3503C26F45033
:100700003B22000E032235503802F3503C26F450B1
:100710003B22000E026A0322022233503902F350B8
:100720003B26F4500322000E022233503802F350CD
:100730000326F4500222000E016A012235503702CE
:10074000F3503B26F4500322000E022201223450C3
:100750003702F3500326F4500222000E01223350D8
:100760003702F3500226F4500122002A01BE05D0C0
:100770003B360336023601360006000E3BAE0AD089
:10078000032A02220122015005E1025003E1035035
:1007900001E1002A3ABE018E3AAE019E04D0006A01
:1007A000016A026A036A1200C282C2B2FED7C3CFD4
:1007B00023F0C4CF24F024C026F023C025F05FD757
:1007C00003C035F002C034F001C033F000C032F095
:1007D000396A386A7A0E376E7D0E366E6CDF03C06A
:1007E00020F002C01FF001C01EF000C01DF0EDEFB0
:1007F00006F00900F6CF26F0F7CF27F0F5CF32F05C
:10080000FEDE26C0F6FF27C0F7FF252EF2D7120026
:100810003250B608326E036A33C036F0338ED89049
:100820003332343235320332023201320032322E68
:10083000F6D736AE0BD0001E011E021E031E002A84
:10084000D8B4012AD8B4022AD8B4032A96EF04F007
:10085000D8B203D0EA6A3A0EE96E006A016A026A07
:10086000036A3A6A3B6A3C6A3D6A3950381037106D
:1008700036102CE0200E3E6ED890323633363436A9
:1008800035363A363B363C363D3639503D5C08E12C
:1008900038503C5C05E137503B5C02E136503A5C35
:1008A0000FE336503A5E3750D8A0373C3B5E3850A5
:1008B000D8A0383C3C5E3950D8A0393C3D5ED88049
:1008C00000360136023603363E2ED6D73AC0EFFF49
:1008D0003BC0ECFF3CC0ECFF3DC0ECFF1200E95018
:1008E0002A6E29502C6E19E028C035F027C034F04C
:1008F00026C033F025C032F0396A386A200E376ED0
:10090000820E366ED8DE03C028F002C027F001C088
:1009100026F000C025F02C2EE7D728C035F027C0E0
:1009200034F026C033F025C032F072D703C028F06F
:1009300002C027F001C026F000C025F028AE0DD07F
:100940002A062A8A251E261E271E281E252AD8B4D6
:10095000262AD8B4272AD8B4282A3B0E316E9A0EFC
:10096000306ECA0E2F6E2E6A0A0E2C6E2950D8B425
:100970002A2AD882EA6A250EE96E28C035F027C0F7
:1009800034F026C033F025C032F031C039F030C029
:1009900038F02FC037F02EC036F05ADF0150005229
:1009A0000FE129282C5C0CE02A500CE00F0B2C5C8A
:1009B00001E037E22ABE35D02ABC04D0200E2DD06B
:1009C000200E2A162AAA0CD02A9A2950D8A42A0620
:1009D00000502A6E2D0E326E12DE2A50006E2A6AE8
:1009E00029502C5C0AE100502A6E2E0E326E07DE72
:1009F0002A50006E200E2A16000E300E2AAA0DD0A4
:100A00002A9A2950D8A42A0600502A6E2D0E326E3A
:100A1000F6DD2A50006E2A6A300E002600C032F041
:100A2000EEDDD89231C035F030C034F02FC033F055
:100A30002EC032F0396A386A376A0A0E366E08DF1D
:100A400003C031F002C030F001C02FF000C02EF022
:100A50002C2E8FD712008E0E006E2550005E26C001
:100A600002F027C001F0028E005209E0D890025235
:100A700002E1015204E002320132002EF7D726AE25
:100A800005D0011E021E012AD8B4022A76EF05F015
:100A90001CC035F01BC034F01AC033F019C032F05E
:100AA000396A386A376A810E366E05DE00C025F075
:100AB00001C026F002C027F003C028F003C035F0C3
:100AC00002C034F001C033F000C032F0396A386A35
:100AD000160E376E850E366EEEDD03C028F002C0AE
:100AE00027F001C026F000C025F0B5D702C022F0E3
:100AF00001C021F022C002F021C001F00232013217
:100B000002320132023201C0BEFF02320230300B2B
:100B1000006EBD50CF0B0010BD6E1200956A0A0E1C
:100B20008C6ED60EF66E040EF76E91DD1200956A8D
:100B3000020E8C6EFA0EF66E040EF76E88DD120051
:100B4000956A080E8C6EF00EF66E040EF76E7FDD61
:100B50001200968284A20ED09BDFE0DF020E256E8B
:100B6000FA0E336E38DD252EFBD7968084B001D087
:100B700001D0EFD78DDF7BDD040E256EFA0E336ECC
:100B80002ADD252EFBD7D3DF040E256EFA0E336E39
:100B900022DD252EFBD7C2DF040E256EFA0E336E42
:100BA0001ADD252EFBD763DD040E256EFA0E336E9B
:100BB00012DD252EFBD7BBDF040E256EFA0E336E39
:100BC0000ADD252EFBD7968284A20ED061DFA6DF38
:100BD000020E256EFA0E336EFEDC252EFBD79680B4
:100BE00084B001D001D0EFD753DF41DD040E256E74
:100BF000FA0E336EF0DC252EFBD7A2DF040E256E35
:100C0000FA0E336EE8DC252EFBD788DF040E256E46
:100C1000FA0E336EE0DC252EFBD729DD040E256E9F
:100C2000FA0E336ED8DC252EFBD78ADF040E256E34
:100C3000FA0E336ED0DC252EFBD72CEF07F0956A29
:100C4000050E8C6EE40EF66E040EF76E00DD4CEFB2
:100C500006F0968284A203D0968484A409D007DD8E
:100C6000939A8A8A0A0E336EB6DC939A8A9A02D0D5
:100C7000939A8A9A928480A40BD0968284A208D0F8
:100C8000968484B405D04ADF640E336EA4DC2CD085
:100C9000928880A805D0D3D7640E336E9CDC24D014
:100CA000928280A20BD0968284A208D0968484B4CB
:100CB00005D046DF640E336E8EDC16D0928680A699
:100CC0000BD0968284A208D0968484B405D02FDFFE
:100CD000640E336E80DC08D0CADC020E256EFA0E7C
:100CE000336E79DC252EFBD72BEF07F0928A80AA92
:100CF00010D093988A98CA0EF66E040EF76EA7DC91
:100D0000CC0EF66E040EF76EA2DC640E336E63DC5E
:100D100007D093988A88D40EF66E040EF76E97DC8F
:100D20002CEF07F0F86AD09E078EEA6AE96A1C6A1F
:100D30001B6A1A6A7E0E196EC150C00B0F09C16E74
:100D4000070EB46E93988A8896928D8296948D84BD
:100D5000939A8A9A8CDC5E0EF66E040EF76E77DC40
:100D6000040E256EFA0E336E36DC252EFBD7700E80
:100D7000F66E040EF76E6BDC040E256EFA0E336E03
:100D80002ADC252EFBD77E0EF66E040EF76E5FDC96
:100D9000040E256EFA0E336E1EDC252EFBD7900E48
:100DA000F66E040EF76E53DC040E256EFA0E336EEB
:100DB00012DC252EFBD7A00EF66E040EF76E47DC74
:100DC000040E256EFA0E336E06DC252EFBD7AE0E12
:100DD000F66E040EF76E3BDCE7D4B00EF66E040E32
:100DE000F76E090E256E05DD020EE96E20C028F0B3
:100DF0001FC027F01EC026F01DC025F0010E296E71
:100E00006EDD0C0E256EFA0E336EEBEC02F0252E25
:100E1000FAD7968084A002D09CD61ED039DEC00EB0
:100E2000F66E040EF76E040E256EE3DC010EE96E1D
:100E30001CC028F01BC027F01AC026F019C025F0EE
:100E4000296E4DDD040E256EFA0E336EEBEC02F0CA
:0C0E5000252EFAD7FED64AD7DCD70300C7
:020000040030CA
:0E00000000C2180E008781000FC00FE00F40F5
:00000001FF
;PIC18F4520
;CRC=C29B  CREATED="04-May-15 01:28"
