:1000000046EF03F0F76A140FF66E000EF7220900B0
:10001000F5501200280C01064E475559454E204216
:1000200041205155414E00000C006B633A25332EA0
:10003000326600000C00EA6A180EE96EEF500EE01E
:10004000030E016E006A002EFED7012EFBD7E30ED1
:10005000006E002EFED70000EF2EF2D712001FB068
:1000600002D08B9801D08B8894981FB202D08B9AC3
:1000700001D08B8A949A1FB402D08B9C01D08B8CB8
:10008000949C1FB602D08B9E01D08B8E949E000054
:100090008B80949000D000D000D08B909490120070
:1000A000206A9488000E82B8010E2012948A000EF5
:1000B00082BA010E006ED890003600502012948C47
:1000C000000E82BC010E006E00360036FC0E0016DB
:1000D00000502012948E000E82BE010E006E00367B
:1000E00000360036F80E00160050201220C001F035
:1000F00012009488948A948C948E8B82949200003F
:100100008B8094900000CCDF01C01FF08B90949006
:1001100000008B80949000D00000C2DF01C01EF070
:100120008B9094909498949A949C949E1F38006E0F
:10013000F00E001600501E10016EA5EF00F0949016
:10014000949694928B969496D4D701C01EF001BEDB
:10015000FBD71C5202E18B9601D08B86949600004F
:100160008B92949200008B9094901D381E6E0F0E0F
:100170001E161EC01FF073DF1D500F0B1E6E1F6E6C
:100180006EDF12009498949A949C949E9490949606
:1001900094928B9694968B9294928B9094900F0E4F
:1001A000186E49DF010E0A6E0A50030808E3030EB9
:1001B0001F6E55DF050E186E3EDF0A2AF5D7020EB8
:1001C0001F6E4DDF050E186E36DF0A6A0A500308EF
:1001D00009E3036A0A5016DF0B6E1C6A1D6EAFDF5F
:1001E0000A2AF4D755EF03F0192C01D003D0400EA2
:1001F0001A6E01D01A6A010E185C1A261A5080096C
:100200001B6E1C6A1D6E9BDF12001750070A07E069
:100210000B0A0AE0060A10E0020A14E018D0010EE8
:10022000186E196EE1DF18D01C6A010E1D6E87DF93
:10023000020E186E00DF10D0010E186E020E196E3D
:10024000D3DF0AD01C6A100E1D6E79DF05D0010EB7
:100250001C6E17C01DF073DF12000900F5520CE090
:10026000F6CF0AF0F7CF0BF0F5CF17F0CEDF0AC0CC
:10027000F6FF0BC0F7FFF1D712008E0E006E0BC019
:1002800001F00AC002F0036A015209E102C001F064
:10029000026A080E005E015202E1006A08D0D8909E
:1002A00001BE04D0023601360006F9D7019EF7EFF1
:1002B00001F01750D8B471D0006E1B50D8B46DD077
:1002C000002604E3810E002668E204D07F0E005E63
:1002D00064E363E018C01FF01C501F1A188E1C8EB8
:1002E0001A501E02F4CF21F019501D02F4CF03F072
:1002F000F3CF20F01E02F3502126F4502022000EEE
:1003000003221A501D02F3502126F4502022000E21
:10031000026A0322022218501E02F3502026F450D3
:100320000322000E022218501D02F3500326F4503F
:100330000222000E016A01221A501C02F3502026EC
:10034000F4500322000E0222012219501C02F35025
:100350000326F4500222000E012218501C02F35012
:100360000226F4500122002A01BE05D020360336B1
:10037000023601360006000E20AE0AD0032A022201
:100380000122015005E1025003E1035001E1002A7E
:100390001FBE018E1FAE019E04D0006A016A026A70
:1003A000036A120093968A86130E006E002EFED703
:1003B00000D093968A96938481B401D0FCD7A50E81
:1003C000CD6ECF6ACE6A938481B401D0FCD7CF6A58
:1003D000CE6A938481A401D0FCD7CD6ACE50046E3E
:1003E000CFCF05F005C00BF004C00AF046D703C01C
:1003F0001AF002C019F001C018F000C017F0960EF4
:100400001E6E430E1D6E0B0E1C6E790E1B6E51DFA1
:1004100003C009F002C008F001C007F000C006F0F8
:1004200065EF03F00900F6CF0BF0F7CF0CF0F5CF36
:1004300017F0EBDE0BC0F6FF0CC0F7FF0A2EF2D769
:100440006FEF03F01750B608176E036A18C01BF061
:10045000188ED890183219321A3203320232013211
:100460000032172EF6D71BAE0BD0001E011E021E47
:10047000031E002AD8B4012AD8B4022AD8B4032A09
:10048000B0EF02F0D8B203D0EA6A1F0EE96E006A3C
:10049000016A026A036A1F6A206A216A226A1E5080
:1004A0001D101C101B102CE0200E236ED890173648
:1004B000183619361A361F362036213622361E5087
:1004C000225C08E11D50215C05E11C50205C02E12A
:1004D0001B501F5C0FE31B501F5E1C50D8A01C3C20
:1004E000205E1D50D8A01D3C215E1E50D8A01E3C91
:1004F000225ED8800036013602360336232ED6D748
:100500001FC0EFFF20C0ECFF21C0ECFF22C0ECFFBA
:100510001200E9500F6E0E50116E19E00DC01AF066
:100520000CC019F00BC018F00AC017F01E6A1D6A43
:10053000200E1C6E820E1B6EBCDE03C00DF002C0CE
:100540000CF001C00BF000C00AF0112EE7D70DC06F
:100550001AF00CC019F00BC018F00AC017F072D7CF
:1005600003C00DF002C00CF001C00BF000C00AF097
:100570000DAE0DD00F060F8A0A1E0B1E0C1E0D1E8F
:100580000A2AD8B40B2AD8B40C2AD8B40D2A3B0EA8
:10059000166E9A0E156ECA0E146E136A0A0E116E3E
:1005A0000E50D8B40F2AD882EA6A0A0EE96E0DC03E
:1005B0001AF00CC019F00BC018F00AC017F016C0E2
:1005C0001EF015C01DF014C01CF013C01BF05ADF44
:1005D000015000520FE10E28115C0CE00F500CE0AE
:1005E0000F0B115C01E037E20FBE35D00FBC04D019
:1005F000200E2DD0200E0F160FAA0CD00F9A0E50E1
:10060000D8A40F0600500F6E2D0E176EFEDD0F5092
:10061000006E0F6A0E50115C0AE100500F6E2E0E34
:10062000176EF3DD0F50006E200E0F16000E300E09
:100630000FAA0DD00F9A0E50D8A40F0600500F6EBF
:100640002D0E176EE2DD0F50006E0F6A300E002681
:1006500000C017F0DADDD89216C01AF015C019F0F4
:1006600014C018F013C017F01E6A1D6A1C6A0A0E27
:100670001B6E08DF03C016F002C015F001C014F0B5
:1006800000C013F0112E8FD77BEF03F0F86AD09ED5
:10069000EA6AE96A096A086A076A066AC150C00B11
:1006A0000F09C16E070EB46E6DD500D00000180E94
:1006B000F66E000EF76ED1DD640E186EBCDC280EEF
:1006C000F66E000EF76EC9DD6DD6050E186EB3DC42
:1006D0002A0EF66E000EF76E030E0A6EA3D6020EF9
:1006E000E96E09C00DF008C00CF007C00BF006C0A1
:1006F0000AF00E6E0ED7640E186E9DDC340EF66E88
:0A070000000EF76EAADDE0D703003B
:020000040030CA
:0E00000000C2180E008781000FC00FE00F40F5
:00000001FF
;PIC18F4520
;CRC=F8D1  CREATED="20-Apr-15 23:30"
