:04000000CBEF02F050
:08000800046ED8CF05F0E0CF33
:1000100006F00001E9CF0CF0EACF07F0E1CF08F0DD
:10002000E2CF09F0D9CF0AF0DACF0BF0F3CF12F01C
:10003000F4CF13F0FACF14F0F5CF15F0F6CF16F099
:10004000F7CF17F000C00EF001C00FF002C010F0A3
:1000500003C011F0F2A830EF00F0F2B2CDEF01F0E2
:10006000F0A636EF00F0F0B0FEEF01F00EC000F0A9
:100070000FC001F010C002F011C003F00CC0E9FF86
:1000800007C0EAFF078E08C0E1FF09C0E2FF0AC00F
:10009000D9FF0BC0DAFF12C0F3FF13C0F4FF14C086
:1000A000FAFF15C0F5FF16C0F6FF17C0F7FF0450A2
:1000B00006C0E0FF05C0D8FF1000800ED8B2331A8A
:1000C000386A396A2FC037F03350371A2E50D8B4F7
:1000D000DCD0366E006E3250D8B4E0D0365ED8B484
:1000E00081D03DE333C03CF03C8E34C03BF035C0A2
:1000F0003AF0396AD8903C323B323A323932362EB5
:10010000F8D737AE03D03880DDD0389036903888B5
:10011000EA6A310EE96EE9D0389837BE0AD036A0C7
:1001200013D03C323B323A323932002AD8B4C5D0EF
:100130000BD03CBE0CD0D89039363A363B363C36E4
:100140000006D8B4BAD0F5D7388C6BD0389C2FC005
:1001500037F02FAE02D03C8EA9D03C9EA7D032C043
:1001600036F032C000F02E50365E2FC03CF03C8E90
:1001700030C03BF031C03AF0396AD8903C323B3263
:100180003A323932362EF8D737AE03D038829AD089
:1001900038923690388AEA6A350EE96EA6D0389AD7
:1001A00037BE0AD036A013D03C323B323A32393215
:1001B000002AD8B482D00BD03CBE0CD0D8903936AF
:1001C0003A363B363C360006D8B477D0F5D7388E71
:1001D00028D0389E33C037F033AE02D03C8E66D084
:1001E0003C9E64D033C03CF03C8E34C03BF035C004
:1001F0003AF037AE04D03C9E388464D03894396AE3
:100200003690EA6A310EE96E70D037BE1CD02FC02E
:1002100037F036A006D03C323B323A323932002A2F
:100220004CE039AE0BD03A2A09E13B2A07E13C2ADF
:1002300005E13C323B323A32002A3FE038BC86D7F7
:1002400038BEC7D71CD0800E3C1A3CAE04D03AD082
:1002500033C037F00AD02FC037F03C5206E13B5292
:1002600004E13A5202E1006A21D03CBE08D0D890A5
:1002700039363A363B363C36002EF7D71ED037AEED
:1002800002D03C8E13D03C9E11D032C000F033C05F
:100290003CF034C03BF035C03AF008D02EC000F03E
:1002A0002FC03CF030C03BF031C03AF03CC001F010
:1002B0003BC002F03AC003F034D0006A016A026A1F
:1002C000036A2FD0396A3A1E3B1E3C1E391E392A5A
:1002D00005E13A2A03E13B2A01E13C2A38B015D76F
:1002E00038B256D738B48AD7B3D7EF503A2605E399
:1002F0003B2A03E13C2AD8B43680ED52EF503B262E
:1003000003E33C2AD8B43680ED52EF50EFBE01D063
:10031000800A3C26D8B0368038B8FED638BA3FD7E7
:1003200074D712002FC036F03350361A36AE05D0CF
:10033000D894D8902FBED8802FD02FC036F032C09E
:1003400037F02E50375E06E036AE26D0D850010A80
:10035000D86E22D033C037F02F50375E06E036AE6D
:100360001BD0D850010AD86E17D034C037F03050A7
:10037000375E06E036AE10D0D850010AD86E0CD0E9
:1003800035C037F03150375E06E036AE05D0D85074
:10039000010AD86E01D0D8901200D8921CC031F05A
:1003A0001BC030F01AC02FF019C02EF0CD0E356EE4
:1003B000CC0E346E4C0E336E7B0E326E7EDE03C07E
:1003C0001CF002C01BF001C01AF000C019F0316A25
:1003D000306A2F6A7F0E2E6E1CC035F01BC034F0C1
:1003E0001AC033F019C032F09DDF05E31C6A1B6AA6
:1003F0001A6A7F0E196EF29236EF00F0D8821CC096
:1004000031F01BC030F01AC02FF019C02EF0CD0E05
:10041000356ECC0E346E4C0E336E7B0E326E4DDE6E
:1004200003C01CF002C01BF001C01AF000C019F09C
:100430001CC031F01BC030F01AC02FF019C02EF0D4
:10044000CD0E356ECC0E346E4C0E336E7B0E326E8E
:1004500069DF08E3CD0E1C6ECC0E1B6E4C0E1A6EBF
:100460007B0E196EF09036EF00F02350D8B471D0A7
:10047000006E2750D8B46DD0002604E3810E00260C
:1004800068E204D07F0E005E64E363E024C02BF0DA
:1004900028502B1A248E288E26502A02F4CF2DF0B5
:1004A00025502902F4CF03F0F3CF2CF02A02F350A9
:1004B0002D26F4502C22000E032226502902F35040
:1004C0002D26F4502C22000E026A03220222245010
:1004D0002A02F3502C26F4500322000E022224504C
:1004E0002902F3500326F4500222000E016A012271
:1004F00026502802F3502C26F4500322000E02222C
:10050000012225502802F3500326F4500222000E47
:10051000012224502802F3500226F4500122002A1E
:1005200001BE05D02C360336023601360006000E19
:100530002CAE0AD0032A02220122015005E102500A
:1005400003E1035001E1002A2BBE018E2BAE019E78
:1005500004D0006A016A026A036A12008E0E006EFD
:100560001F50005E20C002F021C001F0028E005238
:1005700009E0D890025202E1015204E00232013255
:10058000002EF7D720AE05D0011E021E012AD8B4D6
:10059000022A1FEF03F0F86AD09E078EEA6AE96A22
:1005A000CD0E1C6ECC0E1B6E4C0E1A6E7B0E196E91
:1005B000C150C00B0F09C16E070EB46EC00EF2120F
:1005C000F288F086F288F18CF086F18A000E050937
:1005D000CA6E4A0ECB6E94948B940C0EBD6EB76AA5
:1005E000B66A1CC026F01BC025F01AC024F019C042
:1005F00023F02A6A296A286A810E276E36DF00C036
:100600001FF001C020F002C021F003C022F003C09F
:1006100026F002C025F001C024F000C023F02A6AB1
:10062000296A160E286E850E276E1FDF03C022F082
:1006300002C021F001C020F000C01FF08FD702C01F
:100640001EF001C01DF01EC002F01DC001F00232FC
:10065000013202320132023201C0BEFF02320230E8
:10066000300B006EBD50CF0B0010BD6EBAD703002B
:020000040030CA
:0E00000000C2180E008781000FC00FE00F40F5
:00000001FF
;PIC18F4520
;CRC=BB1E  CREATED="15-Apr-15 01:04"
